{
  "address": "0xBe6127C707348907028D680A407B7659A3F727AA",
  "abi": [
    {
      "inputs": [
        {
          "internalType": "address",
          "name": "_token",
          "type": "address"
        },
        {
          "internalType": "address",
          "name": "_wBNB",
          "type": "address"
        }
      ],
      "stateMutability": "nonpayable",
      "type": "constructor"
    },
    {
      "anonymous": false,
      "inputs": [
        {
          "indexed": true,
          "internalType": "address",
          "name": "previousOwner",
          "type": "address"
        },
        {
          "indexed": true,
          "internalType": "address",
          "name": "newOwner",
          "type": "address"
        }
      ],
      "name": "OwnershipTransferred",
      "type": "event"
    },
    {
      "inputs": [],
      "name": "burnFeeAlloc",
      "outputs": [
        {
          "internalType": "uint256",
          "name": "",
          "type": "uint256"
        }
      ],
      "stateMutability": "view",
      "type": "function"
    },
    {
      "inputs": [
        {
          "internalType": "address",
          "name": "",
          "type": "address"
        },
        {
          "internalType": "address",
          "name": "recipient",
          "type": "address"
        }
      ],
      "name": "canSyncFee",
      "outputs": [
        {
          "internalType": "bool",
          "name": "shouldSyncFee",
          "type": "bool"
        }
      ],
      "stateMutability": "view",
      "type": "function"
    },
    {
      "inputs": [],
      "name": "claimOwnership",
      "outputs": [],
      "stateMutability": "nonpayable",
      "type": "function"
    },
    {
      "inputs": [],
      "name": "lpFeeAlloc",
      "outputs": [
        {
          "internalType": "uint256",
          "name": "",
          "type": "uint256"
        }
      ],
      "stateMutability": "view",
      "type": "function"
    },
    {
      "inputs": [],
      "name": "lpMint",
      "outputs": [
        {
          "internalType": "address",
          "name": "",
          "type": "address"
        }
      ],
      "stateMutability": "view",
      "type": "function"
    },
    {
      "inputs": [],
      "name": "minTokens",
      "outputs": [
        {
          "internalType": "uint256",
          "name": "",
          "type": "uint256"
        }
      ],
      "stateMutability": "view",
      "type": "function"
    },
    {
      "inputs": [],
      "name": "owner",
      "outputs": [
        {
          "internalType": "address",
          "name": "",
          "type": "address"
        }
      ],
      "stateMutability": "view",
      "type": "function"
    },
    {
      "inputs": [],
      "name": "pendingOwner",
      "outputs": [
        {
          "internalType": "address",
          "name": "",
          "type": "address"
        }
      ],
      "stateMutability": "view",
      "type": "function"
    },
    {
      "inputs": [],
      "name": "recoverBNB",
      "outputs": [],
      "stateMutability": "nonpayable",
      "type": "function"
    },
    {
      "inputs": [
        {
          "internalType": "address",
          "name": "_token",
          "type": "address"
        }
      ],
      "name": "recoverBep20",
      "outputs": [],
      "stateMutability": "nonpayable",
      "type": "function"
    },
    {
      "inputs": [
        {
          "internalType": "uint256",
          "name": "_burnFeeAlloc",
          "type": "uint256"
        },
        {
          "internalType": "uint256",
          "name": "_lpFeeAlloc",
          "type": "uint256"
        }
      ],
      "name": "setFeeAlloc",
      "outputs": [],
      "stateMutability": "nonpayable",
      "type": "function"
    },
    {
      "inputs": [
        {
          "internalType": "address",
          "name": "_lpMint",
          "type": "address"
        }
      ],
      "name": "setLpMint",
      "outputs": [],
      "stateMutability": "nonpayable",
      "type": "function"
    },
    {
      "inputs": [
        {
          "internalType": "uint256",
          "name": "_minTokens",
          "type": "uint256"
        }
      ],
      "name": "setMinTokens",
      "outputs": [],
      "stateMutability": "nonpayable",
      "type": "function"
    },
    {
      "inputs": [
        {
          "internalType": "address",
          "name": "_uniswapPair",
          "type": "address"
        },
        {
          "internalType": "address",
          "name": "_uniswapRouter",
          "type": "address"
        }
      ],
      "name": "setUniswap",
      "outputs": [],
      "stateMutability": "nonpayable",
      "type": "function"
    },
    {
      "inputs": [],
      "name": "syncFee",
      "outputs": [],
      "stateMutability": "nonpayable",
      "type": "function"
    },
    {
      "inputs": [],
      "name": "token",
      "outputs": [
        {
          "internalType": "address",
          "name": "",
          "type": "address"
        }
      ],
      "stateMutability": "view",
      "type": "function"
    },
    {
      "inputs": [],
      "name": "totalFeeAlloc",
      "outputs": [
        {
          "internalType": "uint256",
          "name": "",
          "type": "uint256"
        }
      ],
      "stateMutability": "view",
      "type": "function"
    },
    {
      "inputs": [
        {
          "internalType": "address",
          "name": "_newOwner",
          "type": "address"
        },
        {
          "internalType": "bool",
          "name": "_direct",
          "type": "bool"
        },
        {
          "internalType": "bool",
          "name": "_renounce",
          "type": "bool"
        }
      ],
      "name": "transferOwnership",
      "outputs": [],
      "stateMutability": "nonpayable",
      "type": "function"
    },
    {
      "inputs": [],
      "name": "uniswapPair",
      "outputs": [
        {
          "internalType": "contract IUniswapV2Pair",
          "name": "",
          "type": "address"
        }
      ],
      "stateMutability": "view",
      "type": "function"
    },
    {
      "inputs": [],
      "name": "uniswapRouter",
      "outputs": [
        {
          "internalType": "contract IUniswapV2Router02",
          "name": "",
          "type": "address"
        }
      ],
      "stateMutability": "view",
      "type": "function"
    },
    {
      "inputs": [],
      "name": "wBNB",
      "outputs": [
        {
          "internalType": "address",
          "name": "",
          "type": "address"
        }
      ],
      "stateMutability": "view",
      "type": "function"
    }
  ],
  "transactionHash": "0x3c2d2d4788a60da8f1993144e75b39d1dac1fb0d21ce3e3c9e3eb0e3992c676d",
  "args": [
    "0xa797Fa4BDa7C5A4B3afe73573B9d2Ab942365C6f",
    "0xe9e7cea3dedca5984780bafc599bd69add087d56"
  ],
  "solcInputHash": "3f2f266760bfcae4a748f3f4b30ab9cf",
  "bytecode": "0x6080604052600060098190556064600a8190556200001d916200020f565b600b553480156200002d57600080fd5b5060405162001f1538038062001f158339810160408190526200005091620001d7565b816001600160a01b038116620000ad5760405162461bcd60e51b815260206004820152601a60248201527f5f746f6b656e20616464726573732063616e6e6f74206265203000000000000060448201526064015b60405180910390fd5b600080546001600160a01b0319166001600160a01b039290921691909117905560018055620000dc3362000168565b6001600160a01b038116620001345760405162461bcd60e51b815260206004820152601960248201527f5f77424e4220616464726573732063616e6e6f742062652030000000000000006044820152606401620000a4565b600480546001600160a01b0319166001600160a01b039290921691909117905550681b1ae4d6e2ef50000060085562000236565b600280546001600160a01b038381166001600160a01b0319831681179093556040519116919082907f8be0079c531659141344cd1fd0a4f28419497f9722a3daafe3b4186f6b6457e090600090a35050565b80516001600160a01b0381168114620001d257600080fd5b919050565b60008060408385031215620001eb57600080fd5b620001f683620001ba565b91506200020660208401620001ba565b90509250929050565b600082198211156200023157634e487b7160e01b600052601160045260246000fd5b500190565b611ccf80620002466000396000f3fe608060405234801561001057600080fd5b50600436106101775760003560e01c8063997235ac116100d8578063d02eb3f41161008c578063e477b2ba11610066578063e477b2ba1461032c578063e605bca01461033f578063fc0c546a1461034757600080fd5b8063d02eb3f4146102e3578063d236d77e14610303578063e30c39781461030c57600080fd5b8063b105cd52116100bd578063b105cd521461028d578063c361dfd5146102b0578063c816841b146102c357600080fd5b8063997235ac146102715780639d4c54511461028457600080fd5b80634e71e0c81161012f578063735de9f711610114578063735de9f7146102285780638da5cb5b1461024857806391d1496f1461026857600080fd5b80634e71e0c8146102185780636bfdf8a01461022057600080fd5b80633b960387116101605780633b960387146101a45780633bdd84bd146101c05780633eaa6db01461020557600080fd5b8063078dfbe71461017c5780630e7e573f14610191575b600080fd5b61018f61018a366004611901565b610367565b005b61018f61019f366004611a4a565b610558565b6101ad600a5481565b6040519081526020015b60405180910390f35b6005546101e09073ffffffffffffffffffffffffffffffffffffffff1681565b60405173ffffffffffffffffffffffffffffffffffffffff90911681526020016101b7565b61018f610213366004611a7c565b610649565b61018f610807565b61018f61091e565b6007546101e09073ffffffffffffffffffffffffffffffffffffffff1681565b6002546101e09073ffffffffffffffffffffffffffffffffffffffff1681565b6101ad60095481565b61018f61027f3660046118ce565b6109e8565b6101ad60085481565b6102a061029b3660046118ce565b610edd565b60405190151581526020016101b7565b61018f6102be3660046118ac565b610f0d565b6006546101e09073ffffffffffffffffffffffffffffffffffffffff1681565b6004546101e09073ffffffffffffffffffffffffffffffffffffffff1681565b6101ad600b5481565b6003546101e09073ffffffffffffffffffffffffffffffffffffffff1681565b61018f61033a3660046118ac565b61112a565b61018f6111f2565b6000546101e09073ffffffffffffffffffffffffffffffffffffffff1681565b60025473ffffffffffffffffffffffffffffffffffffffff1633146103ed576040517f08c379a000000000000000000000000000000000000000000000000000000000815260206004820152601760248201527f63616c6c6572206973206e6f7420746865206f776e657200000000000000000060448201526064015b60405180910390fd5b81156105125773ffffffffffffffffffffffffffffffffffffffff83161515806104145750805b61047a576040517f08c379a000000000000000000000000000000000000000000000000000000000815260206004820152600c60248201527f7a65726f2061646472657373000000000000000000000000000000000000000060448201526064016103e4565b60025460405173ffffffffffffffffffffffffffffffffffffffff8086169216907f8be0079c531659141344cd1fd0a4f28419497f9722a3daafe3b4186f6b6457e090600090a36002805473ffffffffffffffffffffffffffffffffffffffff85167fffffffffffffffffffffffff000000000000000000000000000000000000000091821617909155600380549091169055505050565b600380547fffffffffffffffffffffffff00000000000000000000000000000000000000001673ffffffffffffffffffffffffffffffffffffffff85161790555b505050565b60025473ffffffffffffffffffffffffffffffffffffffff1633146105d9576040517f08c379a000000000000000000000000000000000000000000000000000000000815260206004820152601760248201527f63616c6c6572206973206e6f7420746865206f776e657200000000000000000060448201526064016103e4565b6064811015610644576040517f08c379a000000000000000000000000000000000000000000000000000000000815260206004820152601160248201527f6e6f74206c657373207468656e2031303000000000000000000000000000000060448201526064016103e4565b600855565b60025473ffffffffffffffffffffffffffffffffffffffff1633146106ca576040517f08c379a000000000000000000000000000000000000000000000000000000000815260206004820152601760248201527f63616c6c6572206973206e6f7420746865206f776e657200000000000000000060448201526064016103e4565b606482111561075b576040517f08c379a000000000000000000000000000000000000000000000000000000000815260206004820152602760248201527f5f6275726e466565416c6c6f63206973206f757473696465206f662072616e6760448201527f6520302d3130300000000000000000000000000000000000000000000000000060648201526084016103e4565b60648111156107ec576040517f08c379a000000000000000000000000000000000000000000000000000000000815260206004820152602560248201527f5f6c70466565416c6c6f63206973206f757473696465206f662072616e67652060448201527f302d31303000000000000000000000000000000000000000000000000000000060648201526084016103e4565b6009829055600a8190556108008183611b57565b600b555050565b60035473ffffffffffffffffffffffffffffffffffffffff16338114610889576040517f08c379a000000000000000000000000000000000000000000000000000000000815260206004820152601760248201527f63616c6c657220213d2070656e64696e67206f776e657200000000000000000060448201526064016103e4565b60025460405173ffffffffffffffffffffffffffffffffffffffff8084169216907f8be0079c531659141344cd1fd0a4f28419497f9722a3daafe3b4186f6b6457e090600090a36002805473ffffffffffffffffffffffffffffffffffffffff9092167fffffffffffffffffffffffff0000000000000000000000000000000000000000928316179055600380549091169055565b60025473ffffffffffffffffffffffffffffffffffffffff16331461099f576040517f08c379a000000000000000000000000000000000000000000000000000000000815260206004820152601760248201527f63616c6c6572206973206e6f7420746865206f776e657200000000000000000060448201526064016103e4565b60025460405173ffffffffffffffffffffffffffffffffffffffff909116904780156108fc02916000818181858888f193505050501580156109e5573d6000803e3d6000fd5b50565b60025473ffffffffffffffffffffffffffffffffffffffff163314610a69576040517f08c379a000000000000000000000000000000000000000000000000000000000815260206004820152601760248201527f63616c6c6572206973206e6f7420746865206f776e657200000000000000000060448201526064016103e4565b73ffffffffffffffffffffffffffffffffffffffff8216610ae6576040517f08c379a000000000000000000000000000000000000000000000000000000000815260206004820181905260248201527f5f756e69737761705061697220616464726573732063616e6e6f74206265203060448201526064016103e4565b73ffffffffffffffffffffffffffffffffffffffff8116610b89576040517f08c379a000000000000000000000000000000000000000000000000000000000815260206004820152602260248201527f5f756e6973776170526f7574657220616464726573732063616e6e6f7420626560448201527f203000000000000000000000000000000000000000000000000000000000000060648201526084016103e4565b6006805473ffffffffffffffffffffffffffffffffffffffff8085167fffffffffffffffffffffffff00000000000000000000000000000000000000009283161790925560078054848416921682179055600080546040517f095ea7b300000000000000000000000000000000000000000000000000000000815293169263095ea7b392610c3c92909160040173ffffffffffffffffffffffffffffffffffffffff929092168252602082015260400190565b602060405180830381600087803b158015610c5657600080fd5b505af1158015610c6a573d6000803e3d6000fd5b505050506040513d601f19601f82011682018060405250810190610c8e9190611a2d565b506000546007546040517f095ea7b300000000000000000000000000000000000000000000000000000000815273ffffffffffffffffffffffffffffffffffffffff91821660048201527fffffffffffffffffffffffffffffffffffffffffffffffffffffffffffffffff602482015291169063095ea7b390604401602060405180830381600087803b158015610d2457600080fd5b505af1158015610d38573d6000803e3d6000fd5b505050506040513d601f19601f82011682018060405250810190610d5c9190611a2d565b50600480546007546040517f095ea7b300000000000000000000000000000000000000000000000000000000815273ffffffffffffffffffffffffffffffffffffffff9182169381019390935260006024840152169063095ea7b390604401602060405180830381600087803b158015610dd557600080fd5b505af1158015610de9573d6000803e3d6000fd5b505050506040513d601f19601f82011682018060405250810190610e0d9190611a2d565b50600480546007546040517f095ea7b300000000000000000000000000000000000000000000000000000000815273ffffffffffffffffffffffffffffffffffffffff918216938101939093527fffffffffffffffffffffffffffffffffffffffffffffffffffffffffffffffff6024840152169063095ea7b390604401602060405180830381600087803b158015610ea557600080fd5b505af1158015610eb9573d6000803e3d6000fd5b505050506040513d601f19601f820116820180604052508101906105539190611a2d565b60065460009073ffffffffffffffffffffffffffffffffffffffff83811691161415610f07575060015b92915050565b60025473ffffffffffffffffffffffffffffffffffffffff163314610f8e576040517f08c379a000000000000000000000000000000000000000000000000000000000815260206004820152601760248201527f63616c6c6572206973206e6f7420746865206f776e657200000000000000000060448201526064016103e4565b6040517f70a0823100000000000000000000000000000000000000000000000000000000815230600482015260009073ffffffffffffffffffffffffffffffffffffffff8316906370a082319060240160206040518083038186803b158015610ff657600080fd5b505afa15801561100a573d6000803e3d6000fd5b505050506040513d601f19601f8201168201806040525081019061102e9190611a63565b90506000811161109a576040517f08c379a000000000000000000000000000000000000000000000000000000000815260206004820152601260248201527f6e6f7468696e6720746f207265636f766572000000000000000000000000000060448201526064016103e4565b6002546040517fa9059cbb00000000000000000000000000000000000000000000000000000000815273ffffffffffffffffffffffffffffffffffffffff9182166004820152602481018390529083169063a9059cbb90604401600060405180830381600087803b15801561110e57600080fd5b505af1158015611122573d6000803e3d6000fd5b505050505050565b60025473ffffffffffffffffffffffffffffffffffffffff1633146111ab576040517f08c379a000000000000000000000000000000000000000000000000000000000815260206004820152601760248201527f63616c6c6572206973206e6f7420746865206f776e657200000000000000000060448201526064016103e4565b600580547fffffffffffffffffffffffff00000000000000000000000000000000000000001673ffffffffffffffffffffffffffffffffffffffff92909216919091179055565b60005473ffffffffffffffffffffffffffffffffffffffff163314611273576040517f08c379a000000000000000000000000000000000000000000000000000000000815260206004820152600a60248201527f6f6e6c7920746f6b656e0000000000000000000000000000000000000000000060448201526064016103e4565b60018054141561128f57600260015561128a611291565b600180555b565b600080546040517f70a0823100000000000000000000000000000000000000000000000000000000815230600482015273ffffffffffffffffffffffffffffffffffffffff909116906370a082319060240160206040518083038186803b1580156112fb57600080fd5b505afa15801561130f573d6000803e3d6000fd5b505050506040513d601f19601f820116820180604052508101906113339190611a63565b90506000600854821015801561134b57506000600b54115b156115be57600b546009546113609084611baa565b61136a9190611b6f565b90508015611418576000546040517f42966c680000000000000000000000000000000000000000000000000000000081526004810183905273ffffffffffffffffffffffffffffffffffffffff909116906342966c6890602401602060405180830381600087803b1580156113de57600080fd5b505af11580156113f2573d6000803e3d6000fd5b505050506040513d601f19601f820116820180604052508101906114169190611a2d565b505b60006114248284611be7565b90506002811061055357600061143b600283611b6f565b905060006114498284611be7565b600480546040517f70a08231000000000000000000000000000000000000000000000000000000008152309281019290925291925060009173ffffffffffffffffffffffffffffffffffffffff16906370a082319060240160206040518083038186803b1580156114b957600080fd5b505afa1580156114cd573d6000803e3d6000fd5b505050506040513d601f19601f820116820180604052508101906114f19190611a63565b90506114fc836115c2565b600480546040517f70a08231000000000000000000000000000000000000000000000000000000008152309281019290925260009173ffffffffffffffffffffffffffffffffffffffff909116906370a082319060240160206040518083038186803b15801561156b57600080fd5b505afa15801561157f573d6000803e3d6000fd5b505050506040513d601f19601f820116820180604052508101906115a39190611a63565b90506115b8836115b38484611be7565b61172d565b50505050505b5050565b604080516002808252606082018352600092602083019080368337505060008054835193945073ffffffffffffffffffffffffffffffffffffffff169284925061160e5761160e611c2d565b73ffffffffffffffffffffffffffffffffffffffff928316602091820292909201015260045482519116908290600190811061164c5761164c611c2d565b73ffffffffffffffffffffffffffffffffffffffff92831660209182029290920101526007546040517f38ed17390000000000000000000000000000000000000000000000000000000081529116906338ed1739906116b8908590600090869030904290600401611acc565b600060405180830381600087803b1580156116d257600080fd5b505af192505050801561172557506040513d6000823e601f3d9081017fffffffffffffffffffffffffffffffffffffffffffffffffffffffffffffffe0168201604052611722919081019061194a565b60015b610553575050565b811580159061173b57508015155b156115be5760055460009073ffffffffffffffffffffffffffffffffffffffff166117665730611780565b60055473ffffffffffffffffffffffffffffffffffffffff165b60075460008054600480546040517fe8e3370000000000000000000000000000000000000000000000000000000000815273ffffffffffffffffffffffffffffffffffffffff938416928101929092528216602482015260448101889052606481018790526084810183905260a481019290925280841660c48301524260e483015292935091169063e8e337009061010401606060405180830381600087803b15801561182c57600080fd5b505af192505050801561187a575060408051601f3d9081017fffffffffffffffffffffffffffffffffffffffffffffffffffffffffffffffe016820190925261187791810190611a9e565b60015b61112257505050565b803573ffffffffffffffffffffffffffffffffffffffff811681146118a757600080fd5b919050565b6000602082840312156118be57600080fd5b6118c782611883565b9392505050565b600080604083850312156118e157600080fd5b6118ea83611883565b91506118f860208401611883565b90509250929050565b60008060006060848603121561191657600080fd5b61191f84611883565b9250602084013561192f81611c8b565b9150604084013561193f81611c8b565b809150509250925092565b6000602080838503121561195d57600080fd5b825167ffffffffffffffff8082111561197557600080fd5b818501915085601f83011261198957600080fd5b81518181111561199b5761199b611c5c565b8060051b6040517fffffffffffffffffffffffffffffffffffffffffffffffffffffffffffffffe0603f830116810181811085821117156119de576119de611c5c565b604052828152858101935084860182860187018a10156119fd57600080fd5b600095505b83861015611a20578051855260019590950194938601938601611a02565b5098975050505050505050565b600060208284031215611a3f57600080fd5b81516118c781611c8b565b600060208284031215611a5c57600080fd5b5035919050565b600060208284031215611a7557600080fd5b5051919050565b60008060408385031215611a8f57600080fd5b50508035926020909101359150565b600080600060608486031215611ab357600080fd5b8351925060208401519150604084015190509250925092565b600060a082018783526020878185015260a0604085015281875180845260c086019150828901935060005b81811015611b2957845173ffffffffffffffffffffffffffffffffffffffff1683529383019391830191600101611af7565b505073ffffffffffffffffffffffffffffffffffffffff969096166060850152505050608001529392505050565b60008219821115611b6a57611b6a611bfe565b500190565b600082611ba5577f4e487b7100000000000000000000000000000000000000000000000000000000600052601260045260246000fd5b500490565b6000817fffffffffffffffffffffffffffffffffffffffffffffffffffffffffffffffff0483118215151615611be257611be2611bfe565b500290565b600082821015611bf957611bf9611bfe565b500390565b7f4e487b7100000000000000000000000000000000000000000000000000000000600052601160045260246000fd5b7f4e487b7100000000000000000000000000000000000000000000000000000000600052603260045260246000fd5b7f4e487b7100000000000000000000000000000000000000000000000000000000600052604160045260246000fd5b80151581146109e557600080fdfea26469706673582212207d1bf242e782fa73a894606120a0fb3cc8338bd5fcd24df3aafc3815c04f80ab64736f6c63430008060033",
  "devdoc": {
    "kind": "dev",
    "methods": {
      "claimOwnership()": {
        "details": "Needs to be called by `pendingOwner` to claim ownership."
      },
      "transferOwnership(address,bool,bool)": {
        "details": "Transfers ownership to `newOwner`. Either directly or claimable by the new pending owner.      Can only be invoked by the current `owner`.",
        "params": {
          "_direct": "True if `_newOwner` should be set immediately. False if `_newOwner` needs to use `claimOwnership`.",
          "_newOwner": "Address of the new owner.",
          "_renounce": "Allows the `_newOwner` to be `address(0)` if `_direct` and `_renounce` is True. Has no effect otherwise"
        }
      }
    },
    "version": 1
  },
  "userdoc": {
    "kind": "user",
    "methods": {
      "burnFeeAlloc()": {
        "notice": "fee distribution"
      },
      "lpMint()": {
        "notice": "address of LP mint"
      },
      "minTokens()": {
        "notice": "min amount of tokens to trigger sync"
      },
      "token()": {
        "notice": "token address"
      },
      "uniswapPair()": {
        "notice": "uniswap V2 pair address"
      },
      "uniswapRouter()": {
        "notice": "uniswap V2 router"
      },
      "wBNB()": {
        "notice": "address of wrapped BNB"
      }
    },
    "version": 1
  },
  "storageLayout": {
    "storage": [
      {
        "astId": 1462,
        "contract": "contracts/fee/HoloFeeManager.sol:HoloFeeManager",
        "label": "token",
        "offset": 0,
        "slot": "0",
        "type": "t_address"
      },
      {
        "astId": 1506,
        "contract": "contracts/fee/HoloFeeManager.sol:HoloFeeManager",
        "label": "_lock",
        "offset": 0,
        "slot": "1",
        "type": "t_uint256"
      },
      {
        "astId": 3095,
        "contract": "contracts/fee/HoloFeeManager.sol:HoloFeeManager",
        "label": "owner",
        "offset": 0,
        "slot": "2",
        "type": "t_address"
      },
      {
        "astId": 3097,
        "contract": "contracts/fee/HoloFeeManager.sol:HoloFeeManager",
        "label": "pendingOwner",
        "offset": 0,
        "slot": "3",
        "type": "t_address"
      },
      {
        "astId": 2528,
        "contract": "contracts/fee/HoloFeeManager.sol:HoloFeeManager",
        "label": "wBNB",
        "offset": 0,
        "slot": "4",
        "type": "t_address"
      },
      {
        "astId": 2531,
        "contract": "contracts/fee/HoloFeeManager.sol:HoloFeeManager",
        "label": "lpMint",
        "offset": 0,
        "slot": "5",
        "type": "t_address"
      },
      {
        "astId": 2535,
        "contract": "contracts/fee/HoloFeeManager.sol:HoloFeeManager",
        "label": "uniswapPair",
        "offset": 0,
        "slot": "6",
        "type": "t_contract(IUniswapV2Pair)2111"
      },
      {
        "astId": 2539,
        "contract": "contracts/fee/HoloFeeManager.sol:HoloFeeManager",
        "label": "uniswapRouter",
        "offset": 0,
        "slot": "7",
        "type": "t_contract(IUniswapV2Router02)2509"
      },
      {
        "astId": 2542,
        "contract": "contracts/fee/HoloFeeManager.sol:HoloFeeManager",
        "label": "minTokens",
        "offset": 0,
        "slot": "8",
        "type": "t_uint256"
      },
      {
        "astId": 2546,
        "contract": "contracts/fee/HoloFeeManager.sol:HoloFeeManager",
        "label": "burnFeeAlloc",
        "offset": 0,
        "slot": "9",
        "type": "t_uint256"
      },
      {
        "astId": 2549,
        "contract": "contracts/fee/HoloFeeManager.sol:HoloFeeManager",
        "label": "lpFeeAlloc",
        "offset": 0,
        "slot": "10",
        "type": "t_uint256"
      },
      {
        "astId": 2554,
        "contract": "contracts/fee/HoloFeeManager.sol:HoloFeeManager",
        "label": "totalFeeAlloc",
        "offset": 0,
        "slot": "11",
        "type": "t_uint256"
      }
    ],
    "types": {
      "t_address": {
        "encoding": "inplace",
        "label": "address",
        "numberOfBytes": "20"
      },
      "t_contract(IUniswapV2Pair)2111": {
        "encoding": "inplace",
        "label": "contract IUniswapV2Pair",
        "numberOfBytes": "20"
      },
      "t_contract(IUniswapV2Router02)2509": {
        "encoding": "inplace",
        "label": "contract IUniswapV2Router02",
        "numberOfBytes": "20"
      },
      "t_uint256": {
        "encoding": "inplace",
        "label": "uint256",
        "numberOfBytes": "32"
      }
    }
  }
}