{
  "address": "0xB5AF095828676D1aa1Ae316d45f59b95157208B4",
  "abi": [
    {
      "anonymous": false,
      "inputs": [
        {
          "indexed": true,
          "internalType": "address",
          "name": "user",
          "type": "address"
        },
        {
          "indexed": false,
          "internalType": "uint256",
          "name": "amount",
          "type": "uint256"
        }
      ],
      "name": "Claimed",
      "type": "event"
    },
    {
      "anonymous": false,
      "inputs": [
        {
          "indexed": true,
          "internalType": "address",
          "name": "previousOwner",
          "type": "address"
        },
        {
          "indexed": true,
          "internalType": "address",
          "name": "newOwner",
          "type": "address"
        }
      ],
      "name": "OwnershipTransferred",
      "type": "event"
    },
    {
      "anonymous": false,
      "inputs": [
        {
          "indexed": false,
          "internalType": "uint256",
          "name": "reward",
          "type": "uint256"
        }
      ],
      "name": "Recalculation",
      "type": "event"
    },
    {
      "anonymous": false,
      "inputs": [
        {
          "indexed": true,
          "internalType": "address",
          "name": "previousDistributor",
          "type": "address"
        },
        {
          "indexed": true,
          "internalType": "address",
          "name": "newDistributor",
          "type": "address"
        }
      ],
      "name": "RewardsDistributorChanged",
      "type": "event"
    },
    {
      "anonymous": false,
      "inputs": [
        {
          "indexed": true,
          "internalType": "address",
          "name": "user",
          "type": "address"
        },
        {
          "indexed": false,
          "internalType": "uint256",
          "name": "amount",
          "type": "uint256"
        }
      ],
      "name": "StakeAdded",
      "type": "event"
    },
    {
      "anonymous": false,
      "inputs": [
        {
          "indexed": true,
          "internalType": "address",
          "name": "user",
          "type": "address"
        }
      ],
      "name": "StakeRemoveRequested",
      "type": "event"
    },
    {
      "anonymous": false,
      "inputs": [
        {
          "indexed": true,
          "internalType": "address",
          "name": "user",
          "type": "address"
        },
        {
          "indexed": false,
          "internalType": "uint256",
          "name": "amount",
          "type": "uint256"
        }
      ],
      "name": "StakeRemoved",
      "type": "event"
    },
    {
      "inputs": [
        {
          "internalType": "uint256",
          "name": "_amount",
          "type": "uint256"
        }
      ],
      "name": "addStake",
      "outputs": [],
      "stateMutability": "nonpayable",
      "type": "function"
    },
    {
      "inputs": [
        {
          "internalType": "uint256",
          "name": "_amount",
          "type": "uint256"
        },
        {
          "internalType": "uint256",
          "name": "_deadline",
          "type": "uint256"
        },
        {
          "internalType": "bool",
          "name": "_approveMax",
          "type": "bool"
        },
        {
          "internalType": "uint8",
          "name": "v",
          "type": "uint8"
        },
        {
          "internalType": "bytes32",
          "name": "r",
          "type": "bytes32"
        },
        {
          "internalType": "bytes32",
          "name": "s",
          "type": "bytes32"
        }
      ],
      "name": "addStakeWithPermit",
      "outputs": [],
      "stateMutability": "nonpayable",
      "type": "function"
    },
    {
      "inputs": [
        {
          "internalType": "address",
          "name": "_account",
          "type": "address"
        }
      ],
      "name": "canStakeTokens",
      "outputs": [
        {
          "internalType": "bool",
          "name": "",
          "type": "bool"
        }
      ],
      "stateMutability": "view",
      "type": "function"
    },
    {
      "inputs": [],
      "name": "claim",
      "outputs": [],
      "stateMutability": "nonpayable",
      "type": "function"
    },
    {
      "inputs": [],
      "name": "claimOwnership",
      "outputs": [],
      "stateMutability": "nonpayable",
      "type": "function"
    },
    {
      "inputs": [
        {
          "internalType": "address",
          "name": "_recipient",
          "type": "address"
        }
      ],
      "name": "claimTo",
      "outputs": [],
      "stateMutability": "nonpayable",
      "type": "function"
    },
    {
      "inputs": [
        {
          "internalType": "address",
          "name": "_account",
          "type": "address"
        }
      ],
      "name": "claimable",
      "outputs": [
        {
          "internalType": "uint256",
          "name": "",
          "type": "uint256"
        }
      ],
      "stateMutability": "view",
      "type": "function"
    },
    {
      "inputs": [],
      "name": "currentRewardPerTokenStored",
      "outputs": [
        {
          "internalType": "uint256",
          "name": "",
          "type": "uint256"
        }
      ],
      "stateMutability": "view",
      "type": "function"
    },
    {
      "inputs": [],
      "name": "feeCollector",
      "outputs": [
        {
          "internalType": "address",
          "name": "",
          "type": "address"
        }
      ],
      "stateMutability": "view",
      "type": "function"
    },
    {
      "inputs": [
        {
          "internalType": "address",
          "name": "_stakingToken",
          "type": "address"
        },
        {
          "internalType": "address",
          "name": "_rewardsToken",
          "type": "address"
        },
        {
          "internalType": "address",
          "name": "_feeCollector",
          "type": "address"
        }
      ],
      "name": "init",
      "outputs": [],
      "stateMutability": "nonpayable",
      "type": "function"
    },
    {
      "inputs": [],
      "name": "lastTimeRewardApplicable",
      "outputs": [
        {
          "internalType": "uint256",
          "name": "",
          "type": "uint256"
        }
      ],
      "stateMutability": "view",
      "type": "function"
    },
    {
      "inputs": [],
      "name": "lastUpdateTime",
      "outputs": [
        {
          "internalType": "uint256",
          "name": "",
          "type": "uint256"
        }
      ],
      "stateMutability": "view",
      "type": "function"
    },
    {
      "inputs": [
        {
          "internalType": "uint256",
          "name": "_reward",
          "type": "uint256"
        }
      ],
      "name": "notifyRewardAmount",
      "outputs": [],
      "stateMutability": "nonpayable",
      "type": "function"
    },
    {
      "inputs": [],
      "name": "owner",
      "outputs": [
        {
          "internalType": "address",
          "name": "",
          "type": "address"
        }
      ],
      "stateMutability": "view",
      "type": "function"
    },
    {
      "inputs": [],
      "name": "pendingOwner",
      "outputs": [
        {
          "internalType": "address",
          "name": "",
          "type": "address"
        }
      ],
      "stateMutability": "view",
      "type": "function"
    },
    {
      "inputs": [],
      "name": "periodFinish",
      "outputs": [
        {
          "internalType": "uint256",
          "name": "",
          "type": "uint256"
        }
      ],
      "stateMutability": "view",
      "type": "function"
    },
    {
      "inputs": [],
      "name": "periodLength",
      "outputs": [
        {
          "internalType": "uint256",
          "name": "value",
          "type": "uint256"
        },
        {
          "internalType": "uint256",
          "name": "lastChange",
          "type": "uint256"
        }
      ],
      "stateMutability": "view",
      "type": "function"
    },
    {
      "inputs": [],
      "name": "requestUnstake",
      "outputs": [],
      "stateMutability": "nonpayable",
      "type": "function"
    },
    {
      "inputs": [],
      "name": "rewardPerTokenStored",
      "outputs": [
        {
          "internalType": "uint256",
          "name": "",
          "type": "uint256"
        }
      ],
      "stateMutability": "view",
      "type": "function"
    },
    {
      "inputs": [],
      "name": "rewardRate",
      "outputs": [
        {
          "internalType": "uint256",
          "name": "",
          "type": "uint256"
        }
      ],
      "stateMutability": "view",
      "type": "function"
    },
    {
      "inputs": [],
      "name": "rewardsDistributor",
      "outputs": [
        {
          "internalType": "address",
          "name": "",
          "type": "address"
        }
      ],
      "stateMutability": "view",
      "type": "function"
    },
    {
      "inputs": [],
      "name": "rewardsToken",
      "outputs": [
        {
          "internalType": "address",
          "name": "",
          "type": "address"
        }
      ],
      "stateMutability": "view",
      "type": "function"
    },
    {
      "inputs": [
        {
          "internalType": "address",
          "name": "_feeCollector",
          "type": "address"
        }
      ],
      "name": "setFeeCollector",
      "outputs": [],
      "stateMutability": "nonpayable",
      "type": "function"
    },
    {
      "inputs": [
        {
          "internalType": "address",
          "name": "_rewardsDistributor",
          "type": "address"
        }
      ],
      "name": "setRewardsDistribution",
      "outputs": [],
      "stateMutability": "nonpayable",
      "type": "function"
    },
    {
      "inputs": [],
      "name": "stakedTokens",
      "outputs": [
        {
          "internalType": "uint256",
          "name": "",
          "type": "uint256"
        }
      ],
      "stateMutability": "view",
      "type": "function"
    },
    {
      "inputs": [],
      "name": "stakingToken",
      "outputs": [
        {
          "internalType": "address",
          "name": "",
          "type": "address"
        }
      ],
      "stateMutability": "view",
      "type": "function"
    },
    {
      "inputs": [],
      "name": "timeToUnstake",
      "outputs": [
        {
          "internalType": "uint256",
          "name": "value",
          "type": "uint256"
        },
        {
          "internalType": "uint256",
          "name": "lastChange",
          "type": "uint256"
        }
      ],
      "stateMutability": "view",
      "type": "function"
    },
    {
      "inputs": [
        {
          "internalType": "address",
          "name": "",
          "type": "address"
        }
      ],
      "name": "tokenStake",
      "outputs": [
        {
          "internalType": "uint256",
          "name": "stakeStart",
          "type": "uint256"
        },
        {
          "internalType": "uint256",
          "name": "rewardPerTokenPaid",
          "type": "uint256"
        },
        {
          "internalType": "uint256",
          "name": "tokens",
          "type": "uint256"
        },
        {
          "internalType": "uint256",
          "name": "rewards",
          "type": "uint256"
        },
        {
          "internalType": "uint256",
          "name": "withdrawalPossibleAt",
          "type": "uint256"
        },
        {
          "internalType": "bool",
          "name": "isWithdrawing",
          "type": "bool"
        }
      ],
      "stateMutability": "view",
      "type": "function"
    },
    {
      "inputs": [
        {
          "internalType": "address",
          "name": "_newOwner",
          "type": "address"
        },
        {
          "internalType": "bool",
          "name": "_direct",
          "type": "bool"
        },
        {
          "internalType": "bool",
          "name": "_renounce",
          "type": "bool"
        }
      ],
      "name": "transferOwnership",
      "outputs": [],
      "stateMutability": "nonpayable",
      "type": "function"
    },
    {
      "inputs": [],
      "name": "unstake",
      "outputs": [],
      "stateMutability": "nonpayable",
      "type": "function"
    },
    {
      "inputs": [],
      "name": "unstakeFee",
      "outputs": [
        {
          "internalType": "uint256",
          "name": "value",
          "type": "uint256"
        },
        {
          "internalType": "uint256",
          "name": "lastChange",
          "type": "uint256"
        }
      ],
      "stateMutability": "view",
      "type": "function"
    },
    {
      "inputs": [],
      "name": "unstakeWithFee",
      "outputs": [],
      "stateMutability": "nonpayable",
      "type": "function"
    },
    {
      "inputs": [
        {
          "internalType": "uint256",
          "name": "val",
          "type": "uint256"
        }
      ],
      "name": "updateFee",
      "outputs": [],
      "stateMutability": "nonpayable",
      "type": "function"
    },
    {
      "inputs": [
        {
          "internalType": "uint256",
          "name": "val",
          "type": "uint256"
        }
      ],
      "name": "updatePeriodLength",
      "outputs": [],
      "stateMutability": "nonpayable",
      "type": "function"
    },
    {
      "inputs": [
        {
          "internalType": "uint256",
          "name": "val",
          "type": "uint256"
        }
      ],
      "name": "updateTimeToUnstake",
      "outputs": [],
      "stateMutability": "nonpayable",
      "type": "function"
    }
  ],
  "transactionHash": "0x971402f82603bc2752937dedd7e46582fbb6905c9a1672235c50fcea349696e0",
  "args": [],
  "solcInputHash": "3f2f266760bfcae4a748f3f4b30ab9cf",
  "bytecode": "0x608060405234801561001057600080fd5b50600160005561001f33610064565b600380546001600160a01b031916339081179091556040516000907f52cd8e0a7f86e9df123b3357ab2ee1c4cd0f5ac84ca8c98d93beb2679b2bb806908290a36100b6565b600180546001600160a01b038381166001600160a01b0319831681179093556040519116919082907f8be0079c531659141344cd1fd0a4f28419497f9722a3daafe3b4186f6b6457e090600090a35050565b612b2280620000c66000396000f3fe608060405234801561001057600080fd5b50600436106102415760003560e01c80638ea97d2611610145578063d1af0c7d116100bd578063eb4e49501161008c578063ebe2b12b11610071578063ebe2b12b14610571578063f4aac09d1461057a578063fc63958e1461058257600080fd5b8063eb4e49501461054b578063eb4f16b51461055e57600080fd5b8063d1af0c7d146104f4578063d2ca211514610514578063df136d6514610522578063e30c39781461052b57600080fd5b8063a42dce8011610114578063c415b95c116100f9578063c415b95c146104c2578063c8f33c91146104e2578063cb629009146104eb57600080fd5b8063a42dce801461043a578063ad6a71a31461044d57600080fd5b80638ea97d26146103b95780639012c4a8146103c757806395ba0bee146103da578063a262f5f81461042757600080fd5b8063402914f5116101d857806372f702f3116101a757806380faa57d1161018c57806380faa57d146103895780638767ccd4146103915780638da5cb5b1461039957600080fd5b806372f702f3146103605780637b0a47ee1461038057600080fd5b8063402914f51461031c5780634e71d92d1461033d5780634e71e0c81461034557806359217bcc1461034d57600080fd5b80632def6620116102145780632def662014610294578063368cafc81461029c5780633c6b16ab146102c45780633f2a5540146102d757600080fd5b8063078dfbe7146102465780630f342c371461025b578063184b95591461026e5780631976214314610281575b600080fd5b6102596102543660046128d3565b61058a565b005b61025961026936600461296b565b61077b565b61025961027c366004612890565b6108a1565b61025961028f366004612875565b610c03565b610259610d8f565b6004546005546102aa919082565b604080519283526020830191909152015b60405180910390f35b6102596102d2366004612939565b610ef6565b6003546102f79073ffffffffffffffffffffffffffffffffffffffff1681565b60405173ffffffffffffffffffffffffffffffffffffffff90911681526020016102bb565b61032f61032a366004612875565b6110be565b6040519081526020016102bb565b6102596110cf565b6102596110db565b61025961035b366004612939565b6111f2565b600a546102f79073ffffffffffffffffffffffffffffffffffffffff1681565b61032f600e5481565b61032f611364565b61032f611377565b6001546102f79073ffffffffffffffffffffffffffffffffffffffff1681565b6006546007546102aa919082565b6102596103d5366004612939565b6113e5565b6104176103e8366004612875565b73ffffffffffffffffffffffffffffffffffffffff1660009081526012602052604090206005015460ff161590565b60405190151581526020016102bb565b610259610435366004612875565b611556565b610259610448366004612875565b611563565b61049361045b366004612875565b601260205260009081526040902080546001820154600283015460038401546004850154600590950154939492939192909160ff1686565b6040805196875260208701959095529385019290925260608401526080830152151560a082015260c0016102bb565b600c546102f79073ffffffffffffffffffffffffffffffffffffffff1681565b61032f600f5481565b61032f60115481565b600b546102f79073ffffffffffffffffffffffffffffffffffffffff1681565b6008546009546102aa919082565b61032f60105481565b6002546102f79073ffffffffffffffffffffffffffffffffffffffff1681565b610259610559366004612939565b6116ce565b61025961056c366004612939565b61184a565b61032f600d5481565b61025961188c565b6102596119ed565b60015473ffffffffffffffffffffffffffffffffffffffff163314610610576040517f08c379a000000000000000000000000000000000000000000000000000000000815260206004820152601760248201527f63616c6c6572206973206e6f7420746865206f776e657200000000000000000060448201526064015b60405180910390fd5b81156107355773ffffffffffffffffffffffffffffffffffffffff83161515806106375750805b61069d576040517f08c379a000000000000000000000000000000000000000000000000000000000815260206004820152600c60248201527f7a65726f206164647265737300000000000000000000000000000000000000006044820152606401610607565b60015460405173ffffffffffffffffffffffffffffffffffffffff8086169216907f8be0079c531659141344cd1fd0a4f28419497f9722a3daafe3b4186f6b6457e090600090a36001805473ffffffffffffffffffffffffffffffffffffffff85167fffffffffffffffffffffffff000000000000000000000000000000000000000091821617909155600280549091169055505050565b600280547fffffffffffffffffffffffff00000000000000000000000000000000000000001673ffffffffffffffffffffffffffffffffffffffff85161790555b505050565b60008461078857866107aa565b7fffffffffffffffffffffffffffffffffffffffffffffffffffffffffffffffff5b600a546040517fd505accf000000000000000000000000000000000000000000000000000000008152336004820152306024820152604481018390526064810189905260ff8716608482015260a4810186905260c4810185905291925073ffffffffffffffffffffffffffffffffffffffff169063d505accf9060e401600060405180830381600087803b15801561084157600080fd5b505af1158015610855573d6000803e3d6000fd5b505050506108633388611a23565b60405187815233907f7c717985ac273e663b7f3050f5b15a4388ff6ed952338954f650e2093e13937f9060200160405180910390a250505050505050565b60015473ffffffffffffffffffffffffffffffffffffffff163314610922576040517f08c379a000000000000000000000000000000000000000000000000000000000815260206004820152601760248201527f63616c6c6572206973206e6f7420746865206f776e65720000000000000000006044820152606401610607565b73ffffffffffffffffffffffffffffffffffffffff83166109c5576040517f08c379a000000000000000000000000000000000000000000000000000000000815260206004820152602160248201527f5f7374616b696e67546f6b656e20616464726573732063616e6e6f742062652060448201527f30000000000000000000000000000000000000000000000000000000000000006064820152608401610607565b73ffffffffffffffffffffffffffffffffffffffff8216610a68576040517f08c379a000000000000000000000000000000000000000000000000000000000815260206004820152602160248201527f5f72657761726473546f6b656e20616464726573732063616e6e6f742062652060448201527f30000000000000000000000000000000000000000000000000000000000000006064820152608401610607565b73ffffffffffffffffffffffffffffffffffffffff8116610b0b576040517f08c379a000000000000000000000000000000000000000000000000000000000815260206004820152602160248201527f5f666565436f6c6c6563746f7220616464726573732063616e6e6f742062652060448201527f30000000000000000000000000000000000000000000000000000000000000006064820152608401610607565b600a5473ffffffffffffffffffffffffffffffffffffffff1615610b8b576040517f08c379a000000000000000000000000000000000000000000000000000000000815260206004820152601160248201527f696e697420616c726561647920646f6e650000000000000000000000000000006044820152606401610607565b600a805473ffffffffffffffffffffffffffffffffffffffff9485167fffffffffffffffffffffffff000000000000000000000000000000000000000091821617909155600b805493851693821693909317909255600c805491909316911617905562093a806004556103e860065562278d00600855565b60015473ffffffffffffffffffffffffffffffffffffffff163314610c84576040517f08c379a000000000000000000000000000000000000000000000000000000000815260206004820152601760248201527f63616c6c6572206973206e6f7420746865206f776e65720000000000000000006044820152606401610607565b73ffffffffffffffffffffffffffffffffffffffff8116610d01576040517f08c379a000000000000000000000000000000000000000000000000000000000815260206004820152600c60248201527f7a65726f206164647265737300000000000000000000000000000000000000006044820152606401610607565b60035460405173ffffffffffffffffffffffffffffffffffffffff8084169216907f52cd8e0a7f86e9df123b3357ab2ee1c4cd0f5ac84ca8c98d93beb2679b2bb80690600090a3600380547fffffffffffffffffffffffff00000000000000000000000000000000000000001673ffffffffffffffffffffffffffffffffffffffff92909216919091179055565b60026000541415610dfc576040517f08c379a000000000000000000000000000000000000000000000000000000000815260206004820152601f60248201527f5265656e7472616e637947756172643a207265656e7472616e742063616c6c006044820152606401610607565b600260008181553381526012602052604090200154610e77576040517f08c379a000000000000000000000000000000000000000000000000000000000815260206004820152600e60248201527f6e6f7468696e67207374616b65640000000000000000000000000000000000006044820152606401610607565b610e7f611c0b565b610ee5576040517f08c379a000000000000000000000000000000000000000000000000000000000815260206004820152600e60248201527f63616e6e6f7420756e7374616b650000000000000000000000000000000000006044820152606401610607565b610eef6000611c42565b6001600055565b60035473ffffffffffffffffffffffffffffffffffffffff163314610f77576040517f08c379a000000000000000000000000000000000000000000000000000000000815260206004820181905260248201527f63616c6c6572206973206e6f7420726577617264206469737472696275746f726044820152606401610607565b6000610f8281611e57565b600b5442908390610faa9073ffffffffffffffffffffffffffffffffffffffff163383611edf565b14611011576040517f08c379a000000000000000000000000000000000000000000000000000000000815260206004820152601960248201527f4578636c7564652052657761726465722066726f6d20666565000000000000006044820152606401610607565b600d54811061102f576008546110279084612a20565b600e55611071565b600081600d5461103f9190612a98565b90506000600e54826110519190612a5b565b6008549091506110618287612a08565b61106b9190612a20565b600e5550505b600f8190556008546110839082612a08565b600d556040518381527f1ad8eebdd02d2dec6c13d713bf9f176a99634f52038e64752134d2b2fa860b6d9060200160405180910390a1505050565b60006110c982611f0a565b92915050565b6110d93333611fd6565b565b60025473ffffffffffffffffffffffffffffffffffffffff1633811461115d576040517f08c379a000000000000000000000000000000000000000000000000000000000815260206004820152601760248201527f63616c6c657220213d2070656e64696e67206f776e65720000000000000000006044820152606401610607565b60015460405173ffffffffffffffffffffffffffffffffffffffff8084169216907f8be0079c531659141344cd1fd0a4f28419497f9722a3daafe3b4186f6b6457e090600090a36001805473ffffffffffffffffffffffffffffffffffffffff9092167fffffffffffffffffffffffff0000000000000000000000000000000000000000928316179055600280549091169055565b60015473ffffffffffffffffffffffffffffffffffffffff163314611273576040517f08c379a000000000000000000000000000000000000000000000000000000000815260206004820152601760248201527f63616c6c6572206973206e6f7420746865206f776e65720000000000000000006044820152606401610607565b6009546112849062093a8090612a08565b42116112ee576040517f08c379a00000000000000000000000000000000000000000000000000000000081526004016106079060208082526004908201527f736f6f6e00000000000000000000000000000000000000000000000000000000604082015260600190565b62093a8081101561135b576040517f08c379a000000000000000000000000000000000000000000000000000000000815260206004820152601b60248201527f6d696e20706572696f64206c656e6774682069732037206461797300000000006044820152606401610607565b42600955600855565b600061137242600d546121ec565b905090565b60006011546000141561138b575060105490565b6000600f54611398611364565b6113a29190612a98565b9050600081600e546113b49190612a5b565b905060006113cd6011548361220490919063ffffffff16565b9050806010546113dd9190612a08565b935050505090565b60015473ffffffffffffffffffffffffffffffffffffffff163314611466576040517f08c379a000000000000000000000000000000000000000000000000000000000815260206004820152601760248201527f63616c6c6572206973206e6f7420746865206f776e65720000000000000000006044820152606401610607565b6007546114779062093a8090612a08565b42116114e1576040517f08c379a00000000000000000000000000000000000000000000000000000000081526004016106079060208082526004908201527f736f6f6e00000000000000000000000000000000000000000000000000000000604082015260600190565b6109c481111561154d576040517f08c379a000000000000000000000000000000000000000000000000000000000815260206004820152600e60248201527f6d617820666565206973203235250000000000000000000000000000000000006044820152606401610607565b42600755600655565b6115603382611fd6565b50565b60015473ffffffffffffffffffffffffffffffffffffffff1633146115e4576040517f08c379a000000000000000000000000000000000000000000000000000000000815260206004820152601760248201527f63616c6c6572206973206e6f7420746865206f776e65720000000000000000006044820152606401610607565b73ffffffffffffffffffffffffffffffffffffffff8116611687576040517f08c379a000000000000000000000000000000000000000000000000000000000815260206004820152602160248201527f5f666565436f6c6c6563746f7220616464726573732063616e6e6f742062652060448201527f30000000000000000000000000000000000000000000000000000000000000006064820152608401610607565b600c80547fffffffffffffffffffffffff00000000000000000000000000000000000000001673ffffffffffffffffffffffffffffffffffffffff92909216919091179055565b60015473ffffffffffffffffffffffffffffffffffffffff16331461174f576040517f08c379a000000000000000000000000000000000000000000000000000000000815260206004820152601760248201527f63616c6c6572206973206e6f7420746865206f776e65720000000000000000006044820152606401610607565b6005546117609062093a8090612a08565b42116117ca576040517f08c379a00000000000000000000000000000000000000000000000000000000081526004016106079060208082526004908201527f736f6f6e00000000000000000000000000000000000000000000000000000000604082015260600190565b6117d862278d006002612a5b565b811115611841576040517f08c379a000000000000000000000000000000000000000000000000000000000815260206004820152601460248201527f6d61782064656c617920697320363020646179730000000000000000000000006044820152606401610607565b42600555600455565b6118543382611a23565b60405181815233907f7c717985ac273e663b7f3050f5b15a4388ff6ed952338954f650e2093e13937f9060200160405180910390a250565b600260005414156118f9576040517f08c379a000000000000000000000000000000000000000000000000000000000815260206004820152601f60248201527f5265656e7472616e637947756172643a207265656e7472616e742063616c6c006044820152606401610607565b600260008181553381526012602052604090200154611974576040517f08c379a000000000000000000000000000000000000000000000000000000000815260206004820152600e60248201527f6e6f7468696e67207374616b65640000000000000000000000000000000000006044820152606401610607565b61197c611c0b565b156119e3576040517f08c379a000000000000000000000000000000000000000000000000000000000815260206004820152600d60248201527f756e7374616b65206669727374000000000000000000000000000000000000006044820152606401610607565b610eef6001611c42565b6119f633612223565b60405133907fc0e0022681c64867610b70899a07bee5aa6e6c0d5e40cf3351a426fa9a81052990600090a2565b60026000541415611a90576040517f08c379a000000000000000000000000000000000000000000000000000000000815260206004820152601f60248201527f5265656e7472616e637947756172643a207265656e7472616e742063616c6c006044820152606401610607565b600260005581611a9f81611e57565b60008211611b09576040517f08c379a000000000000000000000000000000000000000000000000000000000815260206004820152600b60248201527f7a65726f20616d6f756e740000000000000000000000000000000000000000006044820152606401610607565b73ffffffffffffffffffffffffffffffffffffffff83166000908152601260205260409020600581015460ff1615611b9d576040517f08c379a000000000000000000000000000000000000000000000000000000000815260206004820152601760248201527f63616e6e6f74207768656e207769746864726177696e670000000000000000006044820152606401610607565b600a54611bc19073ffffffffffffffffffffffffffffffffffffffff163385611edf565b8154909350611bce574281555b82816002016000828254611be29190612a08565b925050819055508260116000828254611bfb9190612a08565b9091555050600160005550505050565b3360009081526012602052604081206005015460ff1680156113725750503360009081526012602052604090206004015442101590565b336000908152601260209081526040808320815160c0810183528154815260018201549381019390935260028101549183019190915260038101546060830152600481015460808301526005015460ff1615801560a083015290919081908190611d965784611cb5578360400151611cc2565b611cc2846040015161239a565b925084611cd0576000611ce0565b828460400151611ce09190612a98565b9050836060015191503373ffffffffffffffffffffffffffffffffffffffff167fa018dcbc822f59fb0d0c3e7a86c8e4259b9676cdea9e5fc26279b9c4c5d86eef8560400151604051611d3591815260200190565b60405180910390a2336000908152601260205260408120818155600181018290556002810182905560038101829055600481019190915560050180547fffffffffffffffffffffffffffffffffffffffffffffffffffffffffffffff001690555b8215611df057600a54611dc09073ffffffffffffffffffffffffffffffffffffffff1633856123c2565b8015611df057600a54600c54611df09173ffffffffffffffffffffffffffffffffffffffff9081169116836123c2565b8115611e5057600b54611e1a9073ffffffffffffffffffffffffffffffffffffffff1633846123c2565b60405182815233907fd8138f8a3f377c5259ca548e70e4c2de94f129f5a11036a15b69513cba2b426a9060200160405180910390a25b5050505050565b6000611e61611377565b90508015611edb576010819055611e76611364565b600f5573ffffffffffffffffffffffffffffffffffffffff821615611edb5773ffffffffffffffffffffffffffffffffffffffff82166000908152601260205260409020600581015460ff1661077657611ecf83611f0a565b60038201556001018190555b5050565b6000611f0273ffffffffffffffffffffffffffffffffffffffff851684846123e3565b949350505050565b73ffffffffffffffffffffffffffffffffffffffff81166000908152601260209081526040808320815160c0810183528154815260018201549381019390935260028101549183019190915260038101546060830152600481015460808301526005015460ff1615801560a0830152611f87576060015192915050565b60008160200151611f96611377565b611fa09190612a98565b90506000611fbb82846040015161254890919063ffffffff16565b9050808360600151611fcd9190612a08565b95945050505050565b60026000541415612043576040517f08c379a000000000000000000000000000000000000000000000000000000000815260206004820152601f60248201527f5265656e7472616e637947756172643a207265656e7472616e742063616c6c006044820152606401610607565b6002600081815533815260126020526040902001546120be576040517f08c379a000000000000000000000000000000000000000000000000000000000815260206004820152600e60248201527f6e6f7468696e67207374616b65640000000000000000000000000000000000006044820152606401610607565b816120c881611e57565b73ffffffffffffffffffffffffffffffffffffffff831660009081526012602052604090206003015480612158576040517f08c379a000000000000000000000000000000000000000000000000000000000815260206004820152601060248201527f6e6f7468696e6720746f20636c61696d000000000000000000000000000000006044820152606401610607565b73ffffffffffffffffffffffffffffffffffffffff808516600090815260126020526040812060030155600b54612191911684836123c2565b8373ffffffffffffffffffffffffffffffffffffffff167fd8138f8a3f377c5259ca548e70e4c2de94f129f5a11036a15b69513cba2b426a826040516121d991815260200190565b60405180910390a2505060016000555050565b60008183116121fb57826121fd565b815b9392505050565b600081612219670de0b6b3a764000085612a5b565b6121fd9190612a20565b3360009081526012602052604090206002015461229c576040517f08c379a000000000000000000000000000000000000000000000000000000000815260206004820152600e60248201527f6e6f7468696e67207374616b65640000000000000000000000000000000000006044820152606401610607565b806122a681611e57565b73ffffffffffffffffffffffffffffffffffffffff82166000908152601260205260409020600581015460ff161561233a576040517f08c379a000000000000000000000000000000000000000000000000000000000815260206004820152601760248201527f63616e6e6f74207768656e207769746864726177696e670000000000000000006044820152606401610607565b6005810180547fffffffffffffffffffffffffffffffffffffffffffffffffffffffffffffff001660011790556004546123749042612a08565b6004820155600281015460118054600090612390908490612a98565b9091555050505050565b600654600090612710906123ae9084612a5b565b6123b89190612a20565b6110c99083612a98565b61077673ffffffffffffffffffffffffffffffffffffffff8416838361255d565b6040517f70a08231000000000000000000000000000000000000000000000000000000008152306004820152600090819073ffffffffffffffffffffffffffffffffffffffff8616906370a082319060240160206040518083038186803b15801561244d57600080fd5b505afa158015612461573d6000803e3d6000fd5b505050506040513d601f19601f820116820180604052508101906124859190612952565b90506124928585856126c6565b6040517f70a0823100000000000000000000000000000000000000000000000000000000815230600482015260009073ffffffffffffffffffffffffffffffffffffffff8716906370a082319060240160206040518083038186803b1580156124fa57600080fd5b505afa15801561250e573d6000803e3d6000fd5b505050506040513d601f19601f820116820180604052508101906125329190612952565b905061253e8282612a98565b9695505050505050565b60006121fd8383670de0b6b3a7640000612835565b6040805173ffffffffffffffffffffffffffffffffffffffff8481166024830152604480830185905283518084039091018152606490920183526020820180517bffffffffffffffffffffffffffffffffffffffffffffffffffffffff167fa9059cbb0000000000000000000000000000000000000000000000000000000017905291516000928392908716916125f491906129cd565b6000604051808303816000865af19150503d8060008114612631576040519150601f19603f3d011682016040523d82523d6000602084013e612636565b606091505b5091509150818015612660575080511580612660575080806020019051810190612660919061291c565b611e50576040517f08c379a000000000000000000000000000000000000000000000000000000000815260206004820152601a60248201527f5361666545524332303a205472616e73666572206661696c65640000000000006044820152606401610607565b6040805173ffffffffffffffffffffffffffffffffffffffff8481166024830152306044830152606480830185905283518084039091018152608490920183526020820180517bffffffffffffffffffffffffffffffffffffffffffffffffffffffff167f23b872dd00000000000000000000000000000000000000000000000000000000179052915160009283929087169161276391906129cd565b6000604051808303816000865af19150503d80600081146127a0576040519150601f19603f3d011682016040523d82523d6000602084013e6127a5565b606091505b50915091508180156127cf5750805115806127cf5750808060200190518101906127cf919061291c565b611e50576040517f08c379a000000000000000000000000000000000000000000000000000000000815260206004820152601e60248201527f5361666545524332303a205472616e7366657246726f6d206661696c656400006044820152606401610607565b6000816128428486612a5b565b611f029190612a20565b803573ffffffffffffffffffffffffffffffffffffffff8116811461287057600080fd5b919050565b60006020828403121561288757600080fd5b6121fd8261284c565b6000806000606084860312156128a557600080fd5b6128ae8461284c565b92506128bc6020850161284c565b91506128ca6040850161284c565b90509250925092565b6000806000606084860312156128e857600080fd5b6128f18461284c565b9250602084013561290181612ade565b9150604084013561291181612ade565b809150509250925092565b60006020828403121561292e57600080fd5b81516121fd81612ade565b60006020828403121561294b57600080fd5b5035919050565b60006020828403121561296457600080fd5b5051919050565b60008060008060008060c0878903121561298457600080fd5b8635955060208701359450604087013561299d81612ade565b9350606087013560ff811681146129b357600080fd5b9598949750929560808101359460a0909101359350915050565b6000825160005b818110156129ee57602081860181015185830152016129d4565b818111156129fd576000828501525b509190910192915050565b60008219821115612a1b57612a1b612aaf565b500190565b600082612a56577f4e487b7100000000000000000000000000000000000000000000000000000000600052601260045260246000fd5b500490565b6000817fffffffffffffffffffffffffffffffffffffffffffffffffffffffffffffffff0483118215151615612a9357612a93612aaf565b500290565b600082821015612aaa57612aaa612aaf565b500390565b7f4e487b7100000000000000000000000000000000000000000000000000000000600052601160045260246000fd5b801515811461156057600080fdfea2646970667358221220c823ff473e7d79b7ba513dfd03b5994eaa45fda87e7d0f20eae57fb488ff2f1664736f6c63430008060033",
  "devdoc": {
    "details": "Uses an ever increasing 'rewardPerTokenStored' variable to distribute rewards         each time a write action is called in the contract. This allows for passive reward accrual.",
    "events": {
      "Claimed(address,uint256)": {
        "details": "events"
      }
    },
    "kind": "dev",
    "methods": {
      "addStake(uint256)": {
        "details": "Add tokens to staking contract",
        "params": {
          "_amount": "of tokens to stake"
        }
      },
      "addStakeWithPermit(uint256,uint256,bool,uint8,bytes32,bytes32)": {
        "details": "Add tokens to staking contract by using permit to set allowance",
        "params": {
          "_amount": "of tokens to stake",
          "_approveMax": "allowance for the token",
          "_deadline": "of permit signature"
        }
      },
      "canStakeTokens(address)": {
        "details": "external view to check if address can stake tokens",
        "returns": {
          "_0": "true if user can stake tokens"
        }
      },
      "claim()": {
        "details": "Claims rewards for the msg.sender."
      },
      "claimOwnership()": {
        "details": "Needs to be called by `pendingOwner` to claim ownership."
      },
      "claimTo(address)": {
        "details": "Claim msg.sender rewards to provided address",
        "params": {
          "_recipient": "address where claimed tokens should be sent"
        }
      },
      "claimable(address)": {
        "details": "Calculates the claimable amounts for token stake from rewards",
        "params": {
          "_account": "user address"
        }
      },
      "currentRewardPerTokenStored()": {
        "details": "Calculates the amount of unclaimed rewards per token since last update,      and sums with stored to give the new cumulative reward per token",
        "returns": {
          "_0": "'Reward' per staked token"
        }
      },
      "init(address,address,address)": {
        "details": "One time initialization function",
        "params": {
          "_feeCollector": "fee collecting address",
          "_rewardsToken": "rewards token address",
          "_stakingToken": "staking token address"
        }
      },
      "lastTimeRewardApplicable()": {
        "details": "Gets the last applicable timestamp for this reward period"
      },
      "notifyRewardAmount(uint256)": {
        "details": "Notifies the contract that new rewards have been added.      Calculates an updated rewardRate based on the rewards in period.",
        "params": {
          "_reward": "Units of rewardsToken that have been added to the token pool"
        }
      },
      "requestUnstake()": {
        "details": "Request unstake for deposited tokens. Marks user token stake as withdrawing,      and start withdrawing period."
      },
      "setRewardsDistribution(address)": {
        "details": "Change the rewardsDistributor - only called by owner",
        "params": {
          "_rewardsDistributor": "Address of the new distributor"
        }
      },
      "transferOwnership(address,bool,bool)": {
        "details": "Transfers ownership to `newOwner`. Either directly or claimable by the new pending owner.      Can only be invoked by the current `owner`.",
        "params": {
          "_direct": "True if `_newOwner` should be set immediately. False if `_newOwner` needs to use `claimOwnership`.",
          "_newOwner": "Address of the new owner.",
          "_renounce": "Allows the `_newOwner` to be `address(0)` if `_direct` and `_renounce` is True. Has no effect otherwise"
        }
      },
      "unstake()": {
        "details": "Withdraw stake for msg.sender from stake (if possible)"
      },
      "unstakeWithFee()": {
        "details": "Unstake requested stake at any time accepting penalty fee"
      }
    },
    "stateVariables": {
      "tokenStake": {
        "details": "each holder have one stake"
      }
    },
    "title": "Staking",
    "version": 1
  },
  "userdoc": {
    "kind": "user",
    "methods": {
      "feeCollector()": {
        "notice": "fee collecting address"
      },
      "lastUpdateTime()": {
        "notice": "last time any user took action"
      },
      "periodFinish()": {
        "notice": "timestamp for current period finish"
      },
      "periodLength()": {
        "notice": "reward recalculation period length"
      },
      "rewardPerTokenStored()": {
        "notice": "accumulated per token reward since the beginning of time"
      },
      "rewardRate()": {
        "notice": "rewardRate for the rest of the period"
      },
      "rewardsToken()": {
        "notice": "rewards token address"
      },
      "stakedTokens()": {
        "notice": "amount of tokens that is used in reward per token calculation"
      },
      "stakingToken()": {
        "notice": "staking token address"
      },
      "timeToUnstake()": {
        "notice": "time to wait for unstake"
      },
      "tokenStake(address)": {
        "notice": "token stakes storage"
      },
      "unstakeFee()": {
        "notice": "fee for premature unstake"
      }
    },
    "notice": "Rewards stakers of given token with rewards in form of reward token, on a pro-rata basis.",
    "version": 1
  },
  "storageLayout": {
    "storage": [
      {
        "astId": 1702,
        "contract": "contracts/staking/LPMining.sol:LPMining",
        "label": "_status",
        "offset": 0,
        "slot": "0",
        "type": "t_uint256"
      },
      {
        "astId": 3095,
        "contract": "contracts/staking/LPMining.sol:LPMining",
        "label": "owner",
        "offset": 0,
        "slot": "1",
        "type": "t_address"
      },
      {
        "astId": 3097,
        "contract": "contracts/staking/LPMining.sol:LPMining",
        "label": "pendingOwner",
        "offset": 0,
        "slot": "2",
        "type": "t_address"
      },
      {
        "astId": 3405,
        "contract": "contracts/staking/LPMining.sol:LPMining",
        "label": "rewardsDistributor",
        "offset": 0,
        "slot": "3",
        "type": "t_address"
      },
      {
        "astId": 3252,
        "contract": "contracts/staking/LPMining.sol:LPMining",
        "label": "timeToUnstake",
        "offset": 0,
        "slot": "4",
        "type": "t_struct(StakeParameters)3248_storage"
      },
      {
        "astId": 3256,
        "contract": "contracts/staking/LPMining.sol:LPMining",
        "label": "unstakeFee",
        "offset": 0,
        "slot": "6",
        "type": "t_struct(StakeParameters)3248_storage"
      },
      {
        "astId": 3260,
        "contract": "contracts/staking/LPMining.sol:LPMining",
        "label": "periodLength",
        "offset": 0,
        "slot": "8",
        "type": "t_struct(StakeParameters)3248_storage"
      },
      {
        "astId": 4500,
        "contract": "contracts/staking/LPMining.sol:LPMining",
        "label": "stakingToken",
        "offset": 0,
        "slot": "10",
        "type": "t_address"
      },
      {
        "astId": 4503,
        "contract": "contracts/staking/LPMining.sol:LPMining",
        "label": "rewardsToken",
        "offset": 0,
        "slot": "11",
        "type": "t_address"
      },
      {
        "astId": 4506,
        "contract": "contracts/staking/LPMining.sol:LPMining",
        "label": "feeCollector",
        "offset": 0,
        "slot": "12",
        "type": "t_address"
      },
      {
        "astId": 4509,
        "contract": "contracts/staking/LPMining.sol:LPMining",
        "label": "periodFinish",
        "offset": 0,
        "slot": "13",
        "type": "t_uint256"
      },
      {
        "astId": 4512,
        "contract": "contracts/staking/LPMining.sol:LPMining",
        "label": "rewardRate",
        "offset": 0,
        "slot": "14",
        "type": "t_uint256"
      },
      {
        "astId": 4515,
        "contract": "contracts/staking/LPMining.sol:LPMining",
        "label": "lastUpdateTime",
        "offset": 0,
        "slot": "15",
        "type": "t_uint256"
      },
      {
        "astId": 4518,
        "contract": "contracts/staking/LPMining.sol:LPMining",
        "label": "rewardPerTokenStored",
        "offset": 0,
        "slot": "16",
        "type": "t_uint256"
      },
      {
        "astId": 4521,
        "contract": "contracts/staking/LPMining.sol:LPMining",
        "label": "stakedTokens",
        "offset": 0,
        "slot": "17",
        "type": "t_uint256"
      },
      {
        "astId": 4540,
        "contract": "contracts/staking/LPMining.sol:LPMining",
        "label": "tokenStake",
        "offset": 0,
        "slot": "18",
        "type": "t_mapping(t_address,t_struct(Stake)4534_storage)"
      }
    ],
    "types": {
      "t_address": {
        "encoding": "inplace",
        "label": "address",
        "numberOfBytes": "20"
      },
      "t_bool": {
        "encoding": "inplace",
        "label": "bool",
        "numberOfBytes": "1"
      },
      "t_mapping(t_address,t_struct(Stake)4534_storage)": {
        "encoding": "mapping",
        "key": "t_address",
        "label": "mapping(address => struct LPMining.Stake)",
        "numberOfBytes": "32",
        "value": "t_struct(Stake)4534_storage"
      },
      "t_struct(Stake)4534_storage": {
        "encoding": "inplace",
        "label": "struct LPMining.Stake",
        "members": [
          {
            "astId": 4523,
            "contract": "contracts/staking/LPMining.sol:LPMining",
            "label": "stakeStart",
            "offset": 0,
            "slot": "0",
            "type": "t_uint256"
          },
          {
            "astId": 4525,
            "contract": "contracts/staking/LPMining.sol:LPMining",
            "label": "rewardPerTokenPaid",
            "offset": 0,
            "slot": "1",
            "type": "t_uint256"
          },
          {
            "astId": 4527,
            "contract": "contracts/staking/LPMining.sol:LPMining",
            "label": "tokens",
            "offset": 0,
            "slot": "2",
            "type": "t_uint256"
          },
          {
            "astId": 4529,
            "contract": "contracts/staking/LPMining.sol:LPMining",
            "label": "rewards",
            "offset": 0,
            "slot": "3",
            "type": "t_uint256"
          },
          {
            "astId": 4531,
            "contract": "contracts/staking/LPMining.sol:LPMining",
            "label": "withdrawalPossibleAt",
            "offset": 0,
            "slot": "4",
            "type": "t_uint256"
          },
          {
            "astId": 4533,
            "contract": "contracts/staking/LPMining.sol:LPMining",
            "label": "isWithdrawing",
            "offset": 0,
            "slot": "5",
            "type": "t_bool"
          }
        ],
        "numberOfBytes": "192"
      },
      "t_struct(StakeParameters)3248_storage": {
        "encoding": "inplace",
        "label": "struct Parameterized.StakeParameters",
        "members": [
          {
            "astId": 3245,
            "contract": "contracts/staking/LPMining.sol:LPMining",
            "label": "value",
            "offset": 0,
            "slot": "0",
            "type": "t_uint256"
          },
          {
            "astId": 3247,
            "contract": "contracts/staking/LPMining.sol:LPMining",
            "label": "lastChange",
            "offset": 0,
            "slot": "1",
            "type": "t_uint256"
          }
        ],
        "numberOfBytes": "64"
      },
      "t_uint256": {
        "encoding": "inplace",
        "label": "uint256",
        "numberOfBytes": "32"
      }
    }
  }
}