{
  "address": "0x463239fB366A453AFfbf662E411a12BeE584f178",
  "abi": [
    {
      "anonymous": false,
      "inputs": [
        {
          "indexed": true,
          "internalType": "address",
          "name": "user",
          "type": "address"
        },
        {
          "indexed": false,
          "internalType": "uint256",
          "name": "amount",
          "type": "uint256"
        }
      ],
      "name": "Claimed",
      "type": "event"
    },
    {
      "anonymous": false,
      "inputs": [
        {
          "indexed": true,
          "internalType": "address",
          "name": "previousOwner",
          "type": "address"
        },
        {
          "indexed": true,
          "internalType": "address",
          "name": "newOwner",
          "type": "address"
        }
      ],
      "name": "OwnershipTransferred",
      "type": "event"
    },
    {
      "anonymous": false,
      "inputs": [
        {
          "indexed": true,
          "internalType": "address",
          "name": "user",
          "type": "address"
        },
        {
          "indexed": false,
          "internalType": "uint256",
          "name": "amount",
          "type": "uint256"
        }
      ],
      "name": "StakeAdded",
      "type": "event"
    },
    {
      "anonymous": false,
      "inputs": [
        {
          "indexed": true,
          "internalType": "address",
          "name": "user",
          "type": "address"
        }
      ],
      "name": "StakeRemoveRequested",
      "type": "event"
    },
    {
      "anonymous": false,
      "inputs": [
        {
          "indexed": true,
          "internalType": "address",
          "name": "user",
          "type": "address"
        },
        {
          "indexed": false,
          "internalType": "uint256",
          "name": "amount",
          "type": "uint256"
        }
      ],
      "name": "StakeRemoved",
      "type": "event"
    },
    {
      "inputs": [
        {
          "internalType": "uint256",
          "name": "_amount",
          "type": "uint256"
        }
      ],
      "name": "addStake",
      "outputs": [],
      "stateMutability": "nonpayable",
      "type": "function"
    },
    {
      "inputs": [
        {
          "internalType": "uint256",
          "name": "_amount",
          "type": "uint256"
        },
        {
          "internalType": "uint256",
          "name": "_deadline",
          "type": "uint256"
        },
        {
          "internalType": "bool",
          "name": "_approveMax",
          "type": "bool"
        },
        {
          "internalType": "uint8",
          "name": "v",
          "type": "uint8"
        },
        {
          "internalType": "bytes32",
          "name": "r",
          "type": "bytes32"
        },
        {
          "internalType": "bytes32",
          "name": "s",
          "type": "bytes32"
        }
      ],
      "name": "addStakeWithPermit",
      "outputs": [],
      "stateMutability": "nonpayable",
      "type": "function"
    },
    {
      "inputs": [
        {
          "internalType": "address",
          "name": "_account",
          "type": "address"
        }
      ],
      "name": "canStakeTokens",
      "outputs": [
        {
          "internalType": "bool",
          "name": "",
          "type": "bool"
        }
      ],
      "stateMutability": "view",
      "type": "function"
    },
    {
      "inputs": [],
      "name": "claim",
      "outputs": [],
      "stateMutability": "nonpayable",
      "type": "function"
    },
    {
      "inputs": [],
      "name": "claimOwnership",
      "outputs": [],
      "stateMutability": "nonpayable",
      "type": "function"
    },
    {
      "inputs": [
        {
          "internalType": "address",
          "name": "_recipient",
          "type": "address"
        }
      ],
      "name": "claimTo",
      "outputs": [],
      "stateMutability": "nonpayable",
      "type": "function"
    },
    {
      "inputs": [
        {
          "internalType": "address",
          "name": "_account",
          "type": "address"
        }
      ],
      "name": "claimable",
      "outputs": [
        {
          "internalType": "uint256",
          "name": "",
          "type": "uint256"
        }
      ],
      "stateMutability": "view",
      "type": "function"
    },
    {
      "inputs": [],
      "name": "currentRewardPerTokenStored",
      "outputs": [
        {
          "internalType": "uint256",
          "name": "",
          "type": "uint256"
        }
      ],
      "stateMutability": "view",
      "type": "function"
    },
    {
      "inputs": [],
      "name": "feeCollector",
      "outputs": [
        {
          "internalType": "address",
          "name": "",
          "type": "address"
        }
      ],
      "stateMutability": "view",
      "type": "function"
    },
    {
      "inputs": [
        {
          "internalType": "address",
          "name": "_stakingToken",
          "type": "address"
        },
        {
          "internalType": "address",
          "name": "_promoToken",
          "type": "address"
        },
        {
          "internalType": "address",
          "name": "_feeCollector",
          "type": "address"
        }
      ],
      "name": "init",
      "outputs": [],
      "stateMutability": "nonpayable",
      "type": "function"
    },
    {
      "inputs": [],
      "name": "lastUpdateTime",
      "outputs": [
        {
          "internalType": "uint256",
          "name": "",
          "type": "uint256"
        }
      ],
      "stateMutability": "view",
      "type": "function"
    },
    {
      "inputs": [
        {
          "internalType": "uint256",
          "name": "_rewardRate",
          "type": "uint256"
        }
      ],
      "name": "notifyRewardRate",
      "outputs": [],
      "stateMutability": "nonpayable",
      "type": "function"
    },
    {
      "inputs": [],
      "name": "owner",
      "outputs": [
        {
          "internalType": "address",
          "name": "",
          "type": "address"
        }
      ],
      "stateMutability": "view",
      "type": "function"
    },
    {
      "inputs": [],
      "name": "pendingOwner",
      "outputs": [
        {
          "internalType": "address",
          "name": "",
          "type": "address"
        }
      ],
      "stateMutability": "view",
      "type": "function"
    },
    {
      "inputs": [],
      "name": "periodLength",
      "outputs": [
        {
          "internalType": "uint256",
          "name": "value",
          "type": "uint256"
        },
        {
          "internalType": "uint256",
          "name": "lastChange",
          "type": "uint256"
        }
      ],
      "stateMutability": "view",
      "type": "function"
    },
    {
      "inputs": [],
      "name": "promoToken",
      "outputs": [
        {
          "internalType": "address",
          "name": "",
          "type": "address"
        }
      ],
      "stateMutability": "view",
      "type": "function"
    },
    {
      "inputs": [],
      "name": "requestUnstake",
      "outputs": [],
      "stateMutability": "nonpayable",
      "type": "function"
    },
    {
      "inputs": [],
      "name": "rewardPerTokenStored",
      "outputs": [
        {
          "internalType": "uint256",
          "name": "",
          "type": "uint256"
        }
      ],
      "stateMutability": "view",
      "type": "function"
    },
    {
      "inputs": [],
      "name": "rewardRate",
      "outputs": [
        {
          "internalType": "uint256",
          "name": "",
          "type": "uint256"
        }
      ],
      "stateMutability": "view",
      "type": "function"
    },
    {
      "inputs": [
        {
          "internalType": "address",
          "name": "_feeCollector",
          "type": "address"
        }
      ],
      "name": "setFeeCollector",
      "outputs": [],
      "stateMutability": "nonpayable",
      "type": "function"
    },
    {
      "inputs": [],
      "name": "stakingToken",
      "outputs": [
        {
          "internalType": "address",
          "name": "",
          "type": "address"
        }
      ],
      "stateMutability": "view",
      "type": "function"
    },
    {
      "inputs": [],
      "name": "timeToUnstake",
      "outputs": [
        {
          "internalType": "uint256",
          "name": "value",
          "type": "uint256"
        },
        {
          "internalType": "uint256",
          "name": "lastChange",
          "type": "uint256"
        }
      ],
      "stateMutability": "view",
      "type": "function"
    },
    {
      "inputs": [
        {
          "internalType": "address",
          "name": "",
          "type": "address"
        }
      ],
      "name": "tokenStake",
      "outputs": [
        {
          "internalType": "uint256",
          "name": "start",
          "type": "uint256"
        },
        {
          "internalType": "uint256",
          "name": "rewardPerTokenPaid",
          "type": "uint256"
        },
        {
          "internalType": "uint256",
          "name": "tokens",
          "type": "uint256"
        },
        {
          "internalType": "uint256",
          "name": "rewards",
          "type": "uint256"
        },
        {
          "internalType": "uint256",
          "name": "withdrawalPossibleAt",
          "type": "uint256"
        },
        {
          "internalType": "bool",
          "name": "isWithdrawing",
          "type": "bool"
        }
      ],
      "stateMutability": "view",
      "type": "function"
    },
    {
      "inputs": [
        {
          "internalType": "address",
          "name": "_newOwner",
          "type": "address"
        },
        {
          "internalType": "bool",
          "name": "_direct",
          "type": "bool"
        },
        {
          "internalType": "bool",
          "name": "_renounce",
          "type": "bool"
        }
      ],
      "name": "transferOwnership",
      "outputs": [],
      "stateMutability": "nonpayable",
      "type": "function"
    },
    {
      "inputs": [],
      "name": "unstake",
      "outputs": [],
      "stateMutability": "nonpayable",
      "type": "function"
    },
    {
      "inputs": [],
      "name": "unstakeFee",
      "outputs": [
        {
          "internalType": "uint256",
          "name": "value",
          "type": "uint256"
        },
        {
          "internalType": "uint256",
          "name": "lastChange",
          "type": "uint256"
        }
      ],
      "stateMutability": "view",
      "type": "function"
    },
    {
      "inputs": [],
      "name": "unstakeWithFee",
      "outputs": [],
      "stateMutability": "nonpayable",
      "type": "function"
    },
    {
      "inputs": [
        {
          "internalType": "uint256",
          "name": "val",
          "type": "uint256"
        }
      ],
      "name": "updateFee",
      "outputs": [],
      "stateMutability": "nonpayable",
      "type": "function"
    },
    {
      "inputs": [
        {
          "internalType": "uint256",
          "name": "val",
          "type": "uint256"
        }
      ],
      "name": "updatePeriodLength",
      "outputs": [],
      "stateMutability": "nonpayable",
      "type": "function"
    },
    {
      "inputs": [
        {
          "internalType": "uint256",
          "name": "val",
          "type": "uint256"
        }
      ],
      "name": "updateTimeToUnstake",
      "outputs": [],
      "stateMutability": "nonpayable",
      "type": "function"
    }
  ],
  "transactionHash": "0xf59451794aebba9b23630231944dcda5f6e52f44d85b741a9549992f623c4047",
  "args": [],
  "solcInputHash": "3f2f266760bfcae4a748f3f4b30ab9cf",
  "bytecode": "0x608060405234801561001057600080fd5b50600160005561001f33610024565b610076565b600180546001600160a01b038381166001600160a01b0319831681179093556040519116919082907f8be0079c531659141344cd1fd0a4f28419497f9722a3daafe3b4186f6b6457e090600090a35050565b6127d5806100856000396000f3fe608060405234801561001057600080fd5b50600436106101da5760003560e01c80638ea97d2611610104578063c8f33c91116100a2578063eb4e495011610071578063eb4e4950146104a0578063eb4f16b5146104b3578063f4aac09d146104c6578063fc63958e146104ce57600080fd5b8063c8f33c9114610460578063d2ca211514610469578063df136d6514610477578063e30c39781461048057600080fd5b8063a262f5f8116100de578063a262f5f8146103a5578063a42dce80146103b8578063ad6a71a3146103cb578063c415b95c1461044057600080fd5b80638ea97d26146103375780639012c4a81461034557806395ba0bee1461035857600080fd5b80634da0a4fc1161017c57806372f702f31161014b57806372f702f3146102e65780637b0a47ee146103065780638767ccd41461030f5780638da5cb5b1461031757600080fd5b80634da0a4fc1461027e5780634e71d92d146102c35780634e71e0c8146102cb57806359217bcc146102d357600080fd5b80632def6620116101b85780632def66201461021a578063368cafc814610222578063402914f51461024a5780634041ef411461026b57600080fd5b8063078dfbe7146101df5780630f342c37146101f4578063184b955914610207575b600080fd5b6101f26101ed366004612586565b6104d6565b005b6101f261020236600461261e565b6106c7565b6101f2610215366004612543565b6107ed565b6101f2610b15565b600354600454610230919082565b604080519283526020830191909152015b60405180910390f35b61025d610258366004612528565b610c7c565b604051908152602001610241565b6101f26102793660046125ec565b610c8d565b600a5461029e9073ffffffffffffffffffffffffffffffffffffffff1681565b60405173ffffffffffffffffffffffffffffffffffffffff9091168152602001610241565b6101f2610d23565b6101f2610d2f565b6101f26102e13660046125ec565b610e46565b60095461029e9073ffffffffffffffffffffffffffffffffffffffff1681565b61025d600c5481565b61025d610fb8565b60015461029e9073ffffffffffffffffffffffffffffffffffffffff1681565b600554600654610230919082565b6101f26103533660046125ec565b610ff2565b610395610366366004612528565b73ffffffffffffffffffffffffffffffffffffffff166000908152600f602052604090206005015460ff161590565b6040519015158152602001610241565b6101f26103b3366004612528565b611163565b6101f26103c6366004612528565b611170565b6104116103d9366004612528565b600f60205260009081526040902080546001820154600283015460038401546004850154600590950154939492939192909160ff1686565b6040805196875260208701959095529385019290925260608401526080830152151560a082015260c001610241565b600b5461029e9073ffffffffffffffffffffffffffffffffffffffff1681565b61025d600d5481565b600754600854610230919082565b61025d600e5481565b60025461029e9073ffffffffffffffffffffffffffffffffffffffff1681565b6101f26104ae3660046125ec565b6112db565b6101f26104c13660046125ec565b611457565b6101f2611499565b6101f26115fa565b60015473ffffffffffffffffffffffffffffffffffffffff16331461055c576040517f08c379a000000000000000000000000000000000000000000000000000000000815260206004820152601760248201527f63616c6c6572206973206e6f7420746865206f776e657200000000000000000060448201526064015b60405180910390fd5b81156106815773ffffffffffffffffffffffffffffffffffffffff83161515806105835750805b6105e9576040517f08c379a000000000000000000000000000000000000000000000000000000000815260206004820152600c60248201527f7a65726f206164647265737300000000000000000000000000000000000000006044820152606401610553565b60015460405173ffffffffffffffffffffffffffffffffffffffff8086169216907f8be0079c531659141344cd1fd0a4f28419497f9722a3daafe3b4186f6b6457e090600090a36001805473ffffffffffffffffffffffffffffffffffffffff85167fffffffffffffffffffffffff000000000000000000000000000000000000000091821617909155600280549091169055505050565b600280547fffffffffffffffffffffffff00000000000000000000000000000000000000001673ffffffffffffffffffffffffffffffffffffffff85161790555b505050565b6000846106d457866106f6565b7fffffffffffffffffffffffffffffffffffffffffffffffffffffffffffffffff5b6009546040517fd505accf000000000000000000000000000000000000000000000000000000008152336004820152306024820152604481018390526064810189905260ff8716608482015260a4810186905260c4810185905291925073ffffffffffffffffffffffffffffffffffffffff169063d505accf9060e401600060405180830381600087803b15801561078d57600080fd5b505af11580156107a1573d6000803e3d6000fd5b505050506107af3388611630565b60405187815233907f7c717985ac273e663b7f3050f5b15a4388ff6ed952338954f650e2093e13937f9060200160405180910390a250505050505050565b60015473ffffffffffffffffffffffffffffffffffffffff16331461086e576040517f08c379a000000000000000000000000000000000000000000000000000000000815260206004820152601760248201527f63616c6c6572206973206e6f7420746865206f776e65720000000000000000006044820152606401610553565b73ffffffffffffffffffffffffffffffffffffffff8316610911576040517f08c379a000000000000000000000000000000000000000000000000000000000815260206004820152602160248201527f5f7374616b696e67546f6b656e20616464726573732063616e6e6f742062652060448201527f30000000000000000000000000000000000000000000000000000000000000006064820152608401610553565b73ffffffffffffffffffffffffffffffffffffffff821661098e576040517f08c379a000000000000000000000000000000000000000000000000000000000815260206004820152601f60248201527f5f70726f6d6f546f6b656e20616464726573732063616e6e6f742062652030006044820152606401610553565b73ffffffffffffffffffffffffffffffffffffffff8116610a31576040517f08c379a000000000000000000000000000000000000000000000000000000000815260206004820152602160248201527f5f666565436f6c6c6563746f7220616464726573732063616e6e6f742062652060448201527f30000000000000000000000000000000000000000000000000000000000000006064820152608401610553565b60095473ffffffffffffffffffffffffffffffffffffffff1615610ab1576040517f08c379a000000000000000000000000000000000000000000000000000000000815260206004820152601160248201527f696e697420616c726561647920646f6e650000000000000000000000000000006044820152606401610553565b6009805473ffffffffffffffffffffffffffffffffffffffff9485167fffffffffffffffffffffffff000000000000000000000000000000000000000091821617909155600a805493851693821693909317909255600b8054919093169116179055565b60026000541415610b82576040517f08c379a000000000000000000000000000000000000000000000000000000000815260206004820152601f60248201527f5265656e7472616e637947756172643a207265656e7472616e742063616c6c006044820152606401610553565b60026000818155338152600f602052604090200154610bfd576040517f08c379a000000000000000000000000000000000000000000000000000000000815260206004820152600e60248201527f6e6f7468696e67207374616b65640000000000000000000000000000000000006044820152606401610553565b610c056117ff565b610c6b576040517f08c379a000000000000000000000000000000000000000000000000000000000815260206004820152600e60248201527f63616e6e6f7420756e7374616b650000000000000000000000000000000000006044820152606401610553565b610c756000611838565b6001600055565b6000610c8782611afa565b92915050565b60015473ffffffffffffffffffffffffffffffffffffffff163314610d0e576040517f08c379a000000000000000000000000000000000000000000000000000000000815260206004820152601760248201527f63616c6c6572206973206e6f7420746865206f776e65720000000000000000006044820152606401610553565b6000610d1981611bd5565b50600c5542600d55565b610d2d3333611c56565b565b60025473ffffffffffffffffffffffffffffffffffffffff16338114610db1576040517f08c379a000000000000000000000000000000000000000000000000000000000815260206004820152601760248201527f63616c6c657220213d2070656e64696e67206f776e65720000000000000000006044820152606401610553565b60015460405173ffffffffffffffffffffffffffffffffffffffff8084169216907f8be0079c531659141344cd1fd0a4f28419497f9722a3daafe3b4186f6b6457e090600090a36001805473ffffffffffffffffffffffffffffffffffffffff9092167fffffffffffffffffffffffff0000000000000000000000000000000000000000928316179055600280549091169055565b60015473ffffffffffffffffffffffffffffffffffffffff163314610ec7576040517f08c379a000000000000000000000000000000000000000000000000000000000815260206004820152601760248201527f63616c6c6572206973206e6f7420746865206f776e65720000000000000000006044820152606401610553565b600854610ed89062093a80906126bb565b4211610f42576040517f08c379a00000000000000000000000000000000000000000000000000000000081526004016105539060208082526004908201527f736f6f6e00000000000000000000000000000000000000000000000000000000604082015260600190565b62093a80811015610faf576040517f08c379a000000000000000000000000000000000000000000000000000000000815260206004820152601b60248201527f6d696e20706572696f64206c656e6774682069732037206461797300000000006044820152606401610553565b42600855600755565b600080600d5442610fc9919061274b565b9050600081600c54610fdb919061270e565b905080600e54610feb91906126bb565b9250505090565b60015473ffffffffffffffffffffffffffffffffffffffff163314611073576040517f08c379a000000000000000000000000000000000000000000000000000000000815260206004820152601760248201527f63616c6c6572206973206e6f7420746865206f776e65720000000000000000006044820152606401610553565b6006546110849062093a80906126bb565b42116110ee576040517f08c379a00000000000000000000000000000000000000000000000000000000081526004016105539060208082526004908201527f736f6f6e00000000000000000000000000000000000000000000000000000000604082015260600190565b6109c481111561115a576040517f08c379a000000000000000000000000000000000000000000000000000000000815260206004820152600e60248201527f6d617820666565206973203235250000000000000000000000000000000000006044820152606401610553565b42600655600555565b61116d3382611c56565b50565b60015473ffffffffffffffffffffffffffffffffffffffff1633146111f1576040517f08c379a000000000000000000000000000000000000000000000000000000000815260206004820152601760248201527f63616c6c6572206973206e6f7420746865206f776e65720000000000000000006044820152606401610553565b73ffffffffffffffffffffffffffffffffffffffff8116611294576040517f08c379a000000000000000000000000000000000000000000000000000000000815260206004820152602160248201527f5f666565436f6c6c6563746f7220616464726573732063616e6e6f742062652060448201527f30000000000000000000000000000000000000000000000000000000000000006064820152608401610553565b600b80547fffffffffffffffffffffffff00000000000000000000000000000000000000001673ffffffffffffffffffffffffffffffffffffffff92909216919091179055565b60015473ffffffffffffffffffffffffffffffffffffffff16331461135c576040517f08c379a000000000000000000000000000000000000000000000000000000000815260206004820152601760248201527f63616c6c6572206973206e6f7420746865206f776e65720000000000000000006044820152606401610553565b60045461136d9062093a80906126bb565b42116113d7576040517f08c379a00000000000000000000000000000000000000000000000000000000081526004016105539060208082526004908201527f736f6f6e00000000000000000000000000000000000000000000000000000000604082015260600190565b6113e562278d00600261270e565b81111561144e576040517f08c379a000000000000000000000000000000000000000000000000000000000815260206004820152601460248201527f6d61782064656c617920697320363020646179730000000000000000000000006044820152606401610553565b42600455600355565b6114613382611630565b60405181815233907f7c717985ac273e663b7f3050f5b15a4388ff6ed952338954f650e2093e13937f9060200160405180910390a250565b60026000541415611506576040517f08c379a000000000000000000000000000000000000000000000000000000000815260206004820152601f60248201527f5265656e7472616e637947756172643a207265656e7472616e742063616c6c006044820152606401610553565b60026000818155338152600f602052604090200154611581576040517f08c379a000000000000000000000000000000000000000000000000000000000815260206004820152600e60248201527f6e6f7468696e67207374616b65640000000000000000000000000000000000006044820152606401610553565b6115896117ff565b156115f0576040517f08c379a000000000000000000000000000000000000000000000000000000000815260206004820152600d60248201527f756e7374616b65206669727374000000000000000000000000000000000000006044820152606401610553565b610c756001611838565b61160333611ec0565b60405133907fc0e0022681c64867610b70899a07bee5aa6e6c0d5e40cf3351a426fa9a81052990600090a2565b6002600054141561169d576040517f08c379a000000000000000000000000000000000000000000000000000000000815260206004820152601f60248201527f5265656e7472616e637947756172643a207265656e7472616e742063616c6c006044820152606401610553565b6002600055816116ac81611bd5565b60008211611716576040517f08c379a000000000000000000000000000000000000000000000000000000000815260206004820152600b60248201527f7a65726f20616d6f756e740000000000000000000000000000000000000000006044820152606401610553565b73ffffffffffffffffffffffffffffffffffffffff83166000908152600f60205260409020600581015460ff16156117aa576040517f08c379a000000000000000000000000000000000000000000000000000000000815260206004820152601760248201527f63616e6e6f74207768656e207769746864726177696e670000000000000000006044820152606401610553565b6009546117ce9073ffffffffffffffffffffffffffffffffffffffff16338561201b565b81549093506117db574281555b828160020160008282546117ef91906126bb565b9091555050600160005550505050565b336000908152600f602052604081206005015460ff1680156118335750336000908152600f60205260409020600401544210155b905090565b336000908152600f60209081526040808320815160c0810183528154815260018201549381019390935260028101549183019190915260038101546060830152600481015460808301526005015460ff1615801560a08301529091908190819061198c57846118ab5783604001516118b8565b6118b88460400151612046565b9250846118c65760006118d6565b8284604001516118d6919061274b565b9050836060015191503373ffffffffffffffffffffffffffffffffffffffff167fa018dcbc822f59fb0d0c3e7a86c8e4259b9676cdea9e5fc26279b9c4c5d86eef856040015160405161192b91815260200190565b60405180910390a2336000908152600f60205260408120818155600181018290556002810182905560038101829055600481019190915560050180547fffffffffffffffffffffffffffffffffffffffffffffffffffffffffffffff001690555b82156119e6576009546119b69073ffffffffffffffffffffffffffffffffffffffff16338561206e565b80156119e657600954600b546119e69173ffffffffffffffffffffffffffffffffffffffff90811691168361206e565b8115611af357600a546040517f449a52f80000000000000000000000000000000000000000000000000000000081523360048201526024810184905273ffffffffffffffffffffffffffffffffffffffff9091169063449a52f890604401602060405180830381600087803b158015611a5e57600080fd5b505af1925050508015611aac575060408051601f3d9081017fffffffffffffffffffffffffffffffffffffffffffffffffffffffffffffffe0168201909252611aa9918101906125cf565b60015b611ab557611af3565b8015611af15760405183815233907fd8138f8a3f377c5259ca548e70e4c2de94f129f5a11036a15b69513cba2b426a9060200160405180910390a25b505b5050505050565b73ffffffffffffffffffffffffffffffffffffffff81166000908152600f60209081526040808320815160c0810183528154815260018201549381019390935260028101549183019190915260038101546060830152600481015460808301526005015460ff16151560a0820181905280611b7757506040810151155b15611b86576060015192915050565b60008160200151611b95610fb8565b611b9f919061274b565b90506000611bba82846040015161208f90919063ffffffff16565b9050808360600151611bcc91906126bb565b95945050505050565b6000611bdf610fb8565b90508015611c5257600e81905542600d5573ffffffffffffffffffffffffffffffffffffffff821615611c525773ffffffffffffffffffffffffffffffffffffffff82166000908152600f60205260409020600581015460ff166106c257611c4683611afa565b60038201556001018190555b5050565b60026000541415611cc3576040517f08c379a000000000000000000000000000000000000000000000000000000000815260206004820152601f60248201527f5265656e7472616e637947756172643a207265656e7472616e742063616c6c006044820152606401610553565b60026000818155338152600f602052604090200154611d3e576040517f08c379a000000000000000000000000000000000000000000000000000000000815260206004820152600e60248201527f6e6f7468696e67207374616b65640000000000000000000000000000000000006044820152606401610553565b81611d4881611bd5565b73ffffffffffffffffffffffffffffffffffffffff83166000908152600f60205260409020600301548015611eb557600a546040517f449a52f800000000000000000000000000000000000000000000000000000000815273ffffffffffffffffffffffffffffffffffffffff8581166004830152602482018490529091169063449a52f890604401602060405180830381600087803b158015611deb57600080fd5b505af1925050508015611e39575060408051601f3d9081017fffffffffffffffffffffffffffffffffffffffffffffffffffffffffffffffe0168201909252611e36918101906125cf565b60015b611e4257611eb5565b8015611eb35773ffffffffffffffffffffffffffffffffffffffff8086166000908152600f60205260408082206003019190915551908516907fd8138f8a3f377c5259ca548e70e4c2de94f129f5a11036a15b69513cba2b426a90611eaa9085815260200190565b60405180910390a25b505b505060016000555050565b336000908152600f6020526040902060020154611f39576040517f08c379a000000000000000000000000000000000000000000000000000000000815260206004820152600e60248201527f6e6f7468696e67207374616b65640000000000000000000000000000000000006044820152606401610553565b80611f4381611bd5565b73ffffffffffffffffffffffffffffffffffffffff82166000908152600f60205260409020600581015460ff1615611fd7576040517f08c379a000000000000000000000000000000000000000000000000000000000815260206004820152601760248201527f63616e6e6f74207768656e207769746864726177696e670000000000000000006044820152606401610553565b6005810180547fffffffffffffffffffffffffffffffffffffffffffffffffffffffffffffff0016600117905560035461201190426126bb565b6004909101555050565b600061203e73ffffffffffffffffffffffffffffffffffffffff851684846120ab565b949350505050565b6005546000906127109061205a908461270e565b61206491906126d3565b610c87908361274b565b6106c273ffffffffffffffffffffffffffffffffffffffff84168383612210565b60006120a48383670de0b6b3a7640000612379565b9392505050565b6040517f70a08231000000000000000000000000000000000000000000000000000000008152306004820152600090819073ffffffffffffffffffffffffffffffffffffffff8616906370a082319060240160206040518083038186803b15801561211557600080fd5b505afa158015612129573d6000803e3d6000fd5b505050506040513d601f19601f8201168201806040525081019061214d9190612605565b905061215a858585612390565b6040517f70a0823100000000000000000000000000000000000000000000000000000000815230600482015260009073ffffffffffffffffffffffffffffffffffffffff8716906370a082319060240160206040518083038186803b1580156121c257600080fd5b505afa1580156121d6573d6000803e3d6000fd5b505050506040513d601f19601f820116820180604052508101906121fa9190612605565b9050612206828261274b565b9695505050505050565b6040805173ffffffffffffffffffffffffffffffffffffffff8481166024830152604480830185905283518084039091018152606490920183526020820180517bffffffffffffffffffffffffffffffffffffffffffffffffffffffff167fa9059cbb0000000000000000000000000000000000000000000000000000000017905291516000928392908716916122a79190612680565b6000604051808303816000865af19150503d80600081146122e4576040519150601f19603f3d011682016040523d82523d6000602084013e6122e9565b606091505b509150915081801561231357508051158061231357508080602001905181019061231391906125cf565b611af3576040517f08c379a000000000000000000000000000000000000000000000000000000000815260206004820152601a60248201527f5361666545524332303a205472616e73666572206661696c65640000000000006044820152606401610553565b600081612386848661270e565b61203e91906126d3565b6040805173ffffffffffffffffffffffffffffffffffffffff8481166024830152306044830152606480830185905283518084039091018152608490920183526020820180517bffffffffffffffffffffffffffffffffffffffffffffffffffffffff167f23b872dd00000000000000000000000000000000000000000000000000000000179052915160009283929087169161242d9190612680565b6000604051808303816000865af19150503d806000811461246a576040519150601f19603f3d011682016040523d82523d6000602084013e61246f565b606091505b509150915081801561249957508051158061249957508080602001905181019061249991906125cf565b611af3576040517f08c379a000000000000000000000000000000000000000000000000000000000815260206004820152601e60248201527f5361666545524332303a205472616e7366657246726f6d206661696c656400006044820152606401610553565b803573ffffffffffffffffffffffffffffffffffffffff8116811461252357600080fd5b919050565b60006020828403121561253a57600080fd5b6120a4826124ff565b60008060006060848603121561255857600080fd5b612561846124ff565b925061256f602085016124ff565b915061257d604085016124ff565b90509250925092565b60008060006060848603121561259b57600080fd5b6125a4846124ff565b925060208401356125b481612791565b915060408401356125c481612791565b809150509250925092565b6000602082840312156125e157600080fd5b81516120a481612791565b6000602082840312156125fe57600080fd5b5035919050565b60006020828403121561261757600080fd5b5051919050565b60008060008060008060c0878903121561263757600080fd5b8635955060208701359450604087013561265081612791565b9350606087013560ff8116811461266657600080fd5b9598949750929560808101359460a0909101359350915050565b6000825160005b818110156126a15760208186018101518583015201612687565b818111156126b0576000828501525b509190910192915050565b600082198211156126ce576126ce612762565b500190565b600082612709577f4e487b7100000000000000000000000000000000000000000000000000000000600052601260045260246000fd5b500490565b6000817fffffffffffffffffffffffffffffffffffffffffffffffffffffffffffffffff048311821515161561274657612746612762565b500290565b60008282101561275d5761275d612762565b500390565b7f4e487b7100000000000000000000000000000000000000000000000000000000600052601160045260246000fd5b801515811461116d57600080fdfea2646970667358221220fe937f26a51ebbf3b1e4ee33dc4a5594883187d9c3502d79afe06bdf97a597f464736f6c63430008060033",
  "devdoc": {
    "events": {
      "Claimed(address,uint256)": {
        "details": "events"
      }
    },
    "kind": "dev",
    "methods": {
      "addStake(uint256)": {
        "details": "Add tokens to staking contract",
        "params": {
          "_amount": "of tokens to stake"
        }
      },
      "addStakeWithPermit(uint256,uint256,bool,uint8,bytes32,bytes32)": {
        "details": "Add tokens to staking contract by using permit to set allowance",
        "params": {
          "_amount": "of tokens to stake",
          "_approveMax": "allowance for the token",
          "_deadline": "of permit signature"
        }
      },
      "canStakeTokens(address)": {
        "details": "external view to check if address can stake tokens",
        "returns": {
          "_0": "true if user can stake tokens"
        }
      },
      "claim()": {
        "details": "Claims rewards for the msg.sender."
      },
      "claimOwnership()": {
        "details": "Needs to be called by `pendingOwner` to claim ownership."
      },
      "claimTo(address)": {
        "details": "Claim msg.sender rewards to provided address",
        "params": {
          "_recipient": "address where claimed tokens should be sent"
        }
      },
      "claimable(address)": {
        "details": "Calculates the claimable amounts for token stake from rewards",
        "params": {
          "_account": "user address"
        }
      },
      "currentRewardPerTokenStored()": {
        "details": "Calculates the amount of unclaimed rewards per token since last update,      and sums with stored to give the new cumulative reward per token",
        "returns": {
          "_0": "'Reward' per staked token"
        }
      },
      "init(address,address,address)": {
        "details": "One time initialization function",
        "params": {
          "_feeCollector": "fee collecting address",
          "_promoToken": "promo token address",
          "_stakingToken": "staking token address"
        }
      },
      "notifyRewardRate(uint256)": {
        "details": "Notifies the contract that new rewardRate have been added.",
        "params": {
          "_rewardRate": "amount of tokens released per block per token staked"
        }
      },
      "requestUnstake()": {
        "details": "Request unstake for deposited tokens. Marks user token stake as withdrawing,      and start withdrawing period."
      },
      "transferOwnership(address,bool,bool)": {
        "details": "Transfers ownership to `newOwner`. Either directly or claimable by the new pending owner.      Can only be invoked by the current `owner`.",
        "params": {
          "_direct": "True if `_newOwner` should be set immediately. False if `_newOwner` needs to use `claimOwnership`.",
          "_newOwner": "Address of the new owner.",
          "_renounce": "Allows the `_newOwner` to be `address(0)` if `_direct` and `_renounce` is True. Has no effect otherwise"
        }
      },
      "unstake()": {
        "details": "Withdraw stake for msg.sender from stake (if possible)"
      },
      "unstakeWithFee()": {
        "details": "Unstake requested stake at any time accepting penalty fee"
      }
    },
    "stateVariables": {
      "tokenStake": {
        "details": "each holder have one stake"
      }
    },
    "title": "PixelFarm",
    "version": 1
  },
  "userdoc": {
    "kind": "user",
    "methods": {
      "feeCollector()": {
        "notice": "fee collecting address"
      },
      "lastUpdateTime()": {
        "notice": "last time any user took action"
      },
      "periodLength()": {
        "notice": "reward recalculation period length"
      },
      "promoToken()": {
        "notice": "promo token address"
      },
      "rewardPerTokenStored()": {
        "notice": "accumulated per token reward since the beginning of time"
      },
      "rewardRate()": {
        "notice": "rewardRate for the promo token"
      },
      "stakingToken()": {
        "notice": "staking token address"
      },
      "timeToUnstake()": {
        "notice": "time to wait for unstake"
      },
      "tokenStake(address)": {
        "notice": "token stakes storage"
      },
      "unstakeFee()": {
        "notice": "fee for premature unstake"
      }
    },
    "notice": "Rewards stakers of given token with rewards in form of promo token.",
    "version": 1
  },
  "storageLayout": {
    "storage": [
      {
        "astId": 1702,
        "contract": "contracts/staking/PixelFarm.sol:PixelFarm",
        "label": "_status",
        "offset": 0,
        "slot": "0",
        "type": "t_uint256"
      },
      {
        "astId": 3095,
        "contract": "contracts/staking/PixelFarm.sol:PixelFarm",
        "label": "owner",
        "offset": 0,
        "slot": "1",
        "type": "t_address"
      },
      {
        "astId": 3097,
        "contract": "contracts/staking/PixelFarm.sol:PixelFarm",
        "label": "pendingOwner",
        "offset": 0,
        "slot": "2",
        "type": "t_address"
      },
      {
        "astId": 3252,
        "contract": "contracts/staking/PixelFarm.sol:PixelFarm",
        "label": "timeToUnstake",
        "offset": 0,
        "slot": "3",
        "type": "t_struct(StakeParameters)3248_storage"
      },
      {
        "astId": 3256,
        "contract": "contracts/staking/PixelFarm.sol:PixelFarm",
        "label": "unstakeFee",
        "offset": 0,
        "slot": "5",
        "type": "t_struct(StakeParameters)3248_storage"
      },
      {
        "astId": 3260,
        "contract": "contracts/staking/PixelFarm.sol:PixelFarm",
        "label": "periodLength",
        "offset": 0,
        "slot": "7",
        "type": "t_struct(StakeParameters)3248_storage"
      },
      {
        "astId": 5493,
        "contract": "contracts/staking/PixelFarm.sol:PixelFarm",
        "label": "stakingToken",
        "offset": 0,
        "slot": "9",
        "type": "t_address"
      },
      {
        "astId": 5496,
        "contract": "contracts/staking/PixelFarm.sol:PixelFarm",
        "label": "promoToken",
        "offset": 0,
        "slot": "10",
        "type": "t_address"
      },
      {
        "astId": 5499,
        "contract": "contracts/staking/PixelFarm.sol:PixelFarm",
        "label": "feeCollector",
        "offset": 0,
        "slot": "11",
        "type": "t_address"
      },
      {
        "astId": 5502,
        "contract": "contracts/staking/PixelFarm.sol:PixelFarm",
        "label": "rewardRate",
        "offset": 0,
        "slot": "12",
        "type": "t_uint256"
      },
      {
        "astId": 5505,
        "contract": "contracts/staking/PixelFarm.sol:PixelFarm",
        "label": "lastUpdateTime",
        "offset": 0,
        "slot": "13",
        "type": "t_uint256"
      },
      {
        "astId": 5508,
        "contract": "contracts/staking/PixelFarm.sol:PixelFarm",
        "label": "rewardPerTokenStored",
        "offset": 0,
        "slot": "14",
        "type": "t_uint256"
      },
      {
        "astId": 5527,
        "contract": "contracts/staking/PixelFarm.sol:PixelFarm",
        "label": "tokenStake",
        "offset": 0,
        "slot": "15",
        "type": "t_mapping(t_address,t_struct(Stake)5521_storage)"
      }
    ],
    "types": {
      "t_address": {
        "encoding": "inplace",
        "label": "address",
        "numberOfBytes": "20"
      },
      "t_bool": {
        "encoding": "inplace",
        "label": "bool",
        "numberOfBytes": "1"
      },
      "t_mapping(t_address,t_struct(Stake)5521_storage)": {
        "encoding": "mapping",
        "key": "t_address",
        "label": "mapping(address => struct PixelFarm.Stake)",
        "numberOfBytes": "32",
        "value": "t_struct(Stake)5521_storage"
      },
      "t_struct(Stake)5521_storage": {
        "encoding": "inplace",
        "label": "struct PixelFarm.Stake",
        "members": [
          {
            "astId": 5510,
            "contract": "contracts/staking/PixelFarm.sol:PixelFarm",
            "label": "start",
            "offset": 0,
            "slot": "0",
            "type": "t_uint256"
          },
          {
            "astId": 5512,
            "contract": "contracts/staking/PixelFarm.sol:PixelFarm",
            "label": "rewardPerTokenPaid",
            "offset": 0,
            "slot": "1",
            "type": "t_uint256"
          },
          {
            "astId": 5514,
            "contract": "contracts/staking/PixelFarm.sol:PixelFarm",
            "label": "tokens",
            "offset": 0,
            "slot": "2",
            "type": "t_uint256"
          },
          {
            "astId": 5516,
            "contract": "contracts/staking/PixelFarm.sol:PixelFarm",
            "label": "rewards",
            "offset": 0,
            "slot": "3",
            "type": "t_uint256"
          },
          {
            "astId": 5518,
            "contract": "contracts/staking/PixelFarm.sol:PixelFarm",
            "label": "withdrawalPossibleAt",
            "offset": 0,
            "slot": "4",
            "type": "t_uint256"
          },
          {
            "astId": 5520,
            "contract": "contracts/staking/PixelFarm.sol:PixelFarm",
            "label": "isWithdrawing",
            "offset": 0,
            "slot": "5",
            "type": "t_bool"
          }
        ],
        "numberOfBytes": "192"
      },
      "t_struct(StakeParameters)3248_storage": {
        "encoding": "inplace",
        "label": "struct Parameterized.StakeParameters",
        "members": [
          {
            "astId": 3245,
            "contract": "contracts/staking/PixelFarm.sol:PixelFarm",
            "label": "value",
            "offset": 0,
            "slot": "0",
            "type": "t_uint256"
          },
          {
            "astId": 3247,
            "contract": "contracts/staking/PixelFarm.sol:PixelFarm",
            "label": "lastChange",
            "offset": 0,
            "slot": "1",
            "type": "t_uint256"
          }
        ],
        "numberOfBytes": "64"
      },
      "t_uint256": {
        "encoding": "inplace",
        "label": "uint256",
        "numberOfBytes": "32"
      }
    }
  }
}