{
  "address": "0xD33CE21d60BB56a7F1dD4f32C1070E9D262a6A04",
  "abi": [
    {
      "anonymous": false,
      "inputs": [
        {
          "indexed": true,
          "internalType": "address",
          "name": "user",
          "type": "address"
        },
        {
          "indexed": false,
          "internalType": "uint256",
          "name": "amount",
          "type": "uint256"
        }
      ],
      "name": "Claimed",
      "type": "event"
    },
    {
      "anonymous": false,
      "inputs": [
        {
          "indexed": true,
          "internalType": "address",
          "name": "previousOwner",
          "type": "address"
        },
        {
          "indexed": true,
          "internalType": "address",
          "name": "newOwner",
          "type": "address"
        }
      ],
      "name": "OwnershipTransferred",
      "type": "event"
    },
    {
      "anonymous": false,
      "inputs": [
        {
          "indexed": false,
          "internalType": "uint256",
          "name": "reward",
          "type": "uint256"
        }
      ],
      "name": "Recalculation",
      "type": "event"
    },
    {
      "anonymous": false,
      "inputs": [
        {
          "indexed": true,
          "internalType": "address",
          "name": "previousDistributor",
          "type": "address"
        },
        {
          "indexed": true,
          "internalType": "address",
          "name": "newDistributor",
          "type": "address"
        }
      ],
      "name": "RewardsDistributorChanged",
      "type": "event"
    },
    {
      "anonymous": false,
      "inputs": [
        {
          "indexed": true,
          "internalType": "address",
          "name": "user",
          "type": "address"
        },
        {
          "indexed": false,
          "internalType": "uint256",
          "name": "amount",
          "type": "uint256"
        }
      ],
      "name": "StakeAdded",
      "type": "event"
    },
    {
      "anonymous": false,
      "inputs": [
        {
          "indexed": true,
          "internalType": "address",
          "name": "user",
          "type": "address"
        }
      ],
      "name": "StakeRemoveRequested",
      "type": "event"
    },
    {
      "anonymous": false,
      "inputs": [
        {
          "indexed": true,
          "internalType": "address",
          "name": "user",
          "type": "address"
        },
        {
          "indexed": false,
          "internalType": "uint256",
          "name": "amount",
          "type": "uint256"
        }
      ],
      "name": "StakeRemoved",
      "type": "event"
    },
    {
      "inputs": [
        {
          "internalType": "uint256",
          "name": "_amount",
          "type": "uint256"
        }
      ],
      "name": "addStake",
      "outputs": [],
      "stateMutability": "nonpayable",
      "type": "function"
    },
    {
      "inputs": [
        {
          "internalType": "uint256",
          "name": "_amount",
          "type": "uint256"
        },
        {
          "internalType": "uint256",
          "name": "_deadline",
          "type": "uint256"
        },
        {
          "internalType": "bool",
          "name": "_approveMax",
          "type": "bool"
        },
        {
          "internalType": "uint8",
          "name": "v",
          "type": "uint8"
        },
        {
          "internalType": "bytes32",
          "name": "r",
          "type": "bytes32"
        },
        {
          "internalType": "bytes32",
          "name": "s",
          "type": "bytes32"
        }
      ],
      "name": "addStakeWithPermit",
      "outputs": [],
      "stateMutability": "nonpayable",
      "type": "function"
    },
    {
      "inputs": [
        {
          "internalType": "address",
          "name": "_account",
          "type": "address"
        }
      ],
      "name": "canStakeTokens",
      "outputs": [
        {
          "internalType": "bool",
          "name": "",
          "type": "bool"
        }
      ],
      "stateMutability": "view",
      "type": "function"
    },
    {
      "inputs": [],
      "name": "claim",
      "outputs": [],
      "stateMutability": "nonpayable",
      "type": "function"
    },
    {
      "inputs": [],
      "name": "claimOwnership",
      "outputs": [],
      "stateMutability": "nonpayable",
      "type": "function"
    },
    {
      "inputs": [
        {
          "internalType": "address",
          "name": "_recipient",
          "type": "address"
        }
      ],
      "name": "claimTo",
      "outputs": [],
      "stateMutability": "nonpayable",
      "type": "function"
    },
    {
      "inputs": [
        {
          "internalType": "address",
          "name": "_account",
          "type": "address"
        }
      ],
      "name": "claimable",
      "outputs": [
        {
          "internalType": "uint256",
          "name": "",
          "type": "uint256"
        }
      ],
      "stateMutability": "view",
      "type": "function"
    },
    {
      "inputs": [],
      "name": "currentRewardPerTokenStored",
      "outputs": [
        {
          "internalType": "uint256",
          "name": "",
          "type": "uint256"
        }
      ],
      "stateMutability": "view",
      "type": "function"
    },
    {
      "inputs": [],
      "name": "feeCollector",
      "outputs": [
        {
          "internalType": "address",
          "name": "",
          "type": "address"
        }
      ],
      "stateMutability": "view",
      "type": "function"
    },
    {
      "inputs": [
        {
          "internalType": "address",
          "name": "_token",
          "type": "address"
        },
        {
          "internalType": "address",
          "name": "_feeCollector",
          "type": "address"
        }
      ],
      "name": "init",
      "outputs": [],
      "stateMutability": "nonpayable",
      "type": "function"
    },
    {
      "inputs": [],
      "name": "lastTimeRewardApplicable",
      "outputs": [
        {
          "internalType": "uint256",
          "name": "",
          "type": "uint256"
        }
      ],
      "stateMutability": "view",
      "type": "function"
    },
    {
      "inputs": [],
      "name": "lastUpdateTime",
      "outputs": [
        {
          "internalType": "uint256",
          "name": "",
          "type": "uint256"
        }
      ],
      "stateMutability": "view",
      "type": "function"
    },
    {
      "inputs": [
        {
          "internalType": "uint256",
          "name": "_reward",
          "type": "uint256"
        }
      ],
      "name": "notifyRewardAmount",
      "outputs": [],
      "stateMutability": "nonpayable",
      "type": "function"
    },
    {
      "inputs": [],
      "name": "owner",
      "outputs": [
        {
          "internalType": "address",
          "name": "",
          "type": "address"
        }
      ],
      "stateMutability": "view",
      "type": "function"
    },
    {
      "inputs": [],
      "name": "pendingOwner",
      "outputs": [
        {
          "internalType": "address",
          "name": "",
          "type": "address"
        }
      ],
      "stateMutability": "view",
      "type": "function"
    },
    {
      "inputs": [],
      "name": "periodFinish",
      "outputs": [
        {
          "internalType": "uint256",
          "name": "",
          "type": "uint256"
        }
      ],
      "stateMutability": "view",
      "type": "function"
    },
    {
      "inputs": [],
      "name": "periodLength",
      "outputs": [
        {
          "internalType": "uint256",
          "name": "value",
          "type": "uint256"
        },
        {
          "internalType": "uint256",
          "name": "lastChange",
          "type": "uint256"
        }
      ],
      "stateMutability": "view",
      "type": "function"
    },
    {
      "inputs": [],
      "name": "requestUnstake",
      "outputs": [],
      "stateMutability": "nonpayable",
      "type": "function"
    },
    {
      "inputs": [],
      "name": "restake",
      "outputs": [],
      "stateMutability": "nonpayable",
      "type": "function"
    },
    {
      "inputs": [],
      "name": "rewardPerTokenStored",
      "outputs": [
        {
          "internalType": "uint256",
          "name": "",
          "type": "uint256"
        }
      ],
      "stateMutability": "view",
      "type": "function"
    },
    {
      "inputs": [],
      "name": "rewardRate",
      "outputs": [
        {
          "internalType": "uint256",
          "name": "",
          "type": "uint256"
        }
      ],
      "stateMutability": "view",
      "type": "function"
    },
    {
      "inputs": [],
      "name": "rewardsDistributor",
      "outputs": [
        {
          "internalType": "address",
          "name": "",
          "type": "address"
        }
      ],
      "stateMutability": "view",
      "type": "function"
    },
    {
      "inputs": [
        {
          "internalType": "address",
          "name": "_feeCollector",
          "type": "address"
        }
      ],
      "name": "setFeeCollector",
      "outputs": [],
      "stateMutability": "nonpayable",
      "type": "function"
    },
    {
      "inputs": [
        {
          "internalType": "address",
          "name": "_rewardsDistributor",
          "type": "address"
        }
      ],
      "name": "setRewardsDistribution",
      "outputs": [],
      "stateMutability": "nonpayable",
      "type": "function"
    },
    {
      "inputs": [],
      "name": "stakedTokens",
      "outputs": [
        {
          "internalType": "uint256",
          "name": "",
          "type": "uint256"
        }
      ],
      "stateMutability": "view",
      "type": "function"
    },
    {
      "inputs": [],
      "name": "timeToUnstake",
      "outputs": [
        {
          "internalType": "uint256",
          "name": "value",
          "type": "uint256"
        },
        {
          "internalType": "uint256",
          "name": "lastChange",
          "type": "uint256"
        }
      ],
      "stateMutability": "view",
      "type": "function"
    },
    {
      "inputs": [],
      "name": "token",
      "outputs": [
        {
          "internalType": "address",
          "name": "",
          "type": "address"
        }
      ],
      "stateMutability": "view",
      "type": "function"
    },
    {
      "inputs": [
        {
          "internalType": "address",
          "name": "",
          "type": "address"
        }
      ],
      "name": "tokenStake",
      "outputs": [
        {
          "internalType": "uint256",
          "name": "stakeStart",
          "type": "uint256"
        },
        {
          "internalType": "uint256",
          "name": "rewardPerTokenPaid",
          "type": "uint256"
        },
        {
          "internalType": "uint256",
          "name": "tokens",
          "type": "uint256"
        },
        {
          "internalType": "uint256",
          "name": "rewards",
          "type": "uint256"
        },
        {
          "internalType": "uint256",
          "name": "withdrawalPossibleAt",
          "type": "uint256"
        },
        {
          "internalType": "bool",
          "name": "isWithdrawing",
          "type": "bool"
        }
      ],
      "stateMutability": "view",
      "type": "function"
    },
    {
      "inputs": [
        {
          "internalType": "address",
          "name": "_newOwner",
          "type": "address"
        },
        {
          "internalType": "bool",
          "name": "_direct",
          "type": "bool"
        },
        {
          "internalType": "bool",
          "name": "_renounce",
          "type": "bool"
        }
      ],
      "name": "transferOwnership",
      "outputs": [],
      "stateMutability": "nonpayable",
      "type": "function"
    },
    {
      "inputs": [],
      "name": "unstake",
      "outputs": [],
      "stateMutability": "nonpayable",
      "type": "function"
    },
    {
      "inputs": [],
      "name": "unstakeFee",
      "outputs": [
        {
          "internalType": "uint256",
          "name": "value",
          "type": "uint256"
        },
        {
          "internalType": "uint256",
          "name": "lastChange",
          "type": "uint256"
        }
      ],
      "stateMutability": "view",
      "type": "function"
    },
    {
      "inputs": [],
      "name": "unstakeWithFee",
      "outputs": [],
      "stateMutability": "nonpayable",
      "type": "function"
    },
    {
      "inputs": [
        {
          "internalType": "uint256",
          "name": "val",
          "type": "uint256"
        }
      ],
      "name": "updateFee",
      "outputs": [],
      "stateMutability": "nonpayable",
      "type": "function"
    },
    {
      "inputs": [
        {
          "internalType": "uint256",
          "name": "val",
          "type": "uint256"
        }
      ],
      "name": "updatePeriodLength",
      "outputs": [],
      "stateMutability": "nonpayable",
      "type": "function"
    },
    {
      "inputs": [
        {
          "internalType": "uint256",
          "name": "val",
          "type": "uint256"
        }
      ],
      "name": "updateTimeToUnstake",
      "outputs": [],
      "stateMutability": "nonpayable",
      "type": "function"
    }
  ],
  "transactionHash": "0xcc1841a1339d8510d6d3fcedbf71899a0a460225d3b15e4ecf66294ca772761b",
  "args": [],
  "solcInputHash": "3f2f266760bfcae4a748f3f4b30ab9cf",
  "bytecode": "0x608060405234801561001057600080fd5b50600160005561001f33610064565b600380546001600160a01b031916339081179091556040516000907f52cd8e0a7f86e9df123b3357ab2ee1c4cd0f5ac84ca8c98d93beb2679b2bb806908290a36100b6565b600180546001600160a01b038381166001600160a01b0319831681179093556040519116919082907f8be0079c531659141344cd1fd0a4f28419497f9722a3daafe3b4186f6b6457e090600090a35050565b612c2780620000c66000396000f3fe608060405234801561001057600080fd5b50600436106102415760003560e01c80639012c4a811610145578063df136d65116100bd578063ebe2b12b1161008c578063f4aac09d11610071578063f4aac09d14610542578063fc0c546a1461054a578063fc63958e1461056a57600080fd5b8063ebe2b12b14610526578063f09a40161461052f57600080fd5b8063df136d65146104d7578063e30c3978146104e0578063eb4e495014610500578063eb4f16b51461051357600080fd5b8063ad6a71a311610114578063c8f33c91116100f9578063c8f33c91146104b7578063cb629009146104c0578063d2ca2115146104c957600080fd5b8063ad6a71a314610422578063c415b95c1461049757600080fd5b80639012c4a81461039c57806395ba0bee146103af578063a262f5f8146103fc578063a42dce801461040f57600080fd5b80634e71d92d116101d85780637b0a47ee116101a75780638767ccd41161018c5780638767ccd4146103665780638da5cb5b1461036e5780638ea97d261461038e57600080fd5b80637b0a47ee1461035557806380faa57d1461035e57600080fd5b80634e71d92d1461032a5780634e71e0c8146103325780634f91440d1461033a57806359217bcc1461034257600080fd5b8063368cafc811610214578063368cafc8146102895780633c6b16ab146102b15780633f2a5540146102c4578063402914f51461030957600080fd5b8063078dfbe7146102465780630f342c371461025b578063197621431461026e5780632def662014610281575b600080fd5b6102596102543660046129d8565b610572565b005b610259610269366004612a70565b610763565b61025961027c36600461298a565b610889565b610259610a15565b600454600554610297919082565b604080519283526020830191909152015b60405180910390f35b6102596102bf366004612a3e565b610b7c565b6003546102e49073ffffffffffffffffffffffffffffffffffffffff1681565b60405173ffffffffffffffffffffffffffffffffffffffff90911681526020016102a8565b61031c61031736600461298a565b610d44565b6040519081526020016102a8565b610259610d55565b610259610d61565b610259610e78565b610259610350366004612a3e565b61108e565b61031c600d5481565b61031c611200565b61031c611213565b6001546102e49073ffffffffffffffffffffffffffffffffffffffff1681565b600654600754610297919082565b6102596103aa366004612a3e565b611281565b6103ec6103bd36600461298a565b73ffffffffffffffffffffffffffffffffffffffff1660009081526011602052604090206005015460ff161590565b60405190151581526020016102a8565b61025961040a36600461298a565b6113f2565b61025961041d36600461298a565b6113ff565b61046861043036600461298a565b601160205260009081526040902080546001820154600283015460038401546004850154600590950154939492939192909160ff1686565b6040805196875260208701959095529385019290925260608401526080830152151560a082015260c0016102a8565b600b546102e49073ffffffffffffffffffffffffffffffffffffffff1681565b61031c600e5481565b61031c60105481565b600854600954610297919082565b61031c600f5481565b6002546102e49073ffffffffffffffffffffffffffffffffffffffff1681565b61025961050e366004612a3e565b61156a565b610259610521366004612a3e565b6116e6565b61031c600c5481565b61025961053d3660046129a5565b611728565b6102596119b0565b600a546102e49073ffffffffffffffffffffffffffffffffffffffff1681565b610259611b11565b60015473ffffffffffffffffffffffffffffffffffffffff1633146105f8576040517f08c379a000000000000000000000000000000000000000000000000000000000815260206004820152601760248201527f63616c6c6572206973206e6f7420746865206f776e657200000000000000000060448201526064015b60405180910390fd5b811561071d5773ffffffffffffffffffffffffffffffffffffffff831615158061061f5750805b610685576040517f08c379a000000000000000000000000000000000000000000000000000000000815260206004820152600c60248201527f7a65726f2061646472657373000000000000000000000000000000000000000060448201526064016105ef565b60015460405173ffffffffffffffffffffffffffffffffffffffff8086169216907f8be0079c531659141344cd1fd0a4f28419497f9722a3daafe3b4186f6b6457e090600090a36001805473ffffffffffffffffffffffffffffffffffffffff85167fffffffffffffffffffffffff000000000000000000000000000000000000000091821617909155600280549091169055505050565b600280547fffffffffffffffffffffffff00000000000000000000000000000000000000001673ffffffffffffffffffffffffffffffffffffffff85161790555b505050565b6000846107705786610792565b7fffffffffffffffffffffffffffffffffffffffffffffffffffffffffffffffff5b600a546040517fd505accf000000000000000000000000000000000000000000000000000000008152336004820152306024820152604481018390526064810189905260ff8716608482015260a4810186905260c4810185905291925073ffffffffffffffffffffffffffffffffffffffff169063d505accf9060e401600060405180830381600087803b15801561082957600080fd5b505af115801561083d573d6000803e3d6000fd5b5050505061084b3388611b47565b60405187815233907f7c717985ac273e663b7f3050f5b15a4388ff6ed952338954f650e2093e13937f9060200160405180910390a250505050505050565b60015473ffffffffffffffffffffffffffffffffffffffff16331461090a576040517f08c379a000000000000000000000000000000000000000000000000000000000815260206004820152601760248201527f63616c6c6572206973206e6f7420746865206f776e657200000000000000000060448201526064016105ef565b73ffffffffffffffffffffffffffffffffffffffff8116610987576040517f08c379a000000000000000000000000000000000000000000000000000000000815260206004820152600c60248201527f7a65726f2061646472657373000000000000000000000000000000000000000060448201526064016105ef565b60035460405173ffffffffffffffffffffffffffffffffffffffff8084169216907f52cd8e0a7f86e9df123b3357ab2ee1c4cd0f5ac84ca8c98d93beb2679b2bb80690600090a3600380547fffffffffffffffffffffffff00000000000000000000000000000000000000001673ffffffffffffffffffffffffffffffffffffffff92909216919091179055565b60026000541415610a82576040517f08c379a000000000000000000000000000000000000000000000000000000000815260206004820152601f60248201527f5265656e7472616e637947756172643a207265656e7472616e742063616c6c0060448201526064016105ef565b600260008181553381526011602052604090200154610afd576040517f08c379a000000000000000000000000000000000000000000000000000000000815260206004820152600e60248201527f6e6f7468696e67207374616b656400000000000000000000000000000000000060448201526064016105ef565b610b05611d2f565b610b6b576040517f08c379a000000000000000000000000000000000000000000000000000000000815260206004820152600e60248201527f63616e6e6f7420756e7374616b6500000000000000000000000000000000000060448201526064016105ef565b610b756000611d66565b6001600055565b60035473ffffffffffffffffffffffffffffffffffffffff163314610bfd576040517f08c379a000000000000000000000000000000000000000000000000000000000815260206004820181905260248201527f63616c6c6572206973206e6f7420726577617264206469737472696275746f7260448201526064016105ef565b6000610c0881611f6c565b600a5442908390610c309073ffffffffffffffffffffffffffffffffffffffff163383611ff4565b14610c97576040517f08c379a000000000000000000000000000000000000000000000000000000000815260206004820152601960248201527f4578636c7564652052657761726465722066726f6d206665650000000000000060448201526064016105ef565b600c548110610cb557600854610cad9084612b25565b600d55610cf7565b600081600c54610cc59190612b9d565b90506000600d5482610cd79190612b60565b600854909150610ce78287612b0d565b610cf19190612b25565b600d5550505b600e819055600854610d099082612b0d565b600c556040518381527f1ad8eebdd02d2dec6c13d713bf9f176a99634f52038e64752134d2b2fa860b6d9060200160405180910390a1505050565b6000610d4f8261201f565b92915050565b610d5f33336120eb565b565b60025473ffffffffffffffffffffffffffffffffffffffff16338114610de3576040517f08c379a000000000000000000000000000000000000000000000000000000000815260206004820152601760248201527f63616c6c657220213d2070656e64696e67206f776e657200000000000000000060448201526064016105ef565b60015460405173ffffffffffffffffffffffffffffffffffffffff8084169216907f8be0079c531659141344cd1fd0a4f28419497f9722a3daafe3b4186f6b6457e090600090a36001805473ffffffffffffffffffffffffffffffffffffffff9092167fffffffffffffffffffffffff0000000000000000000000000000000000000000928316179055600280549091169055565b33600090815260116020526040902060020154610ef1576040517f08c379a000000000000000000000000000000000000000000000000000000000815260206004820152600e60248201527f6e6f7468696e67207374616b656400000000000000000000000000000000000060448201526064016105ef565b33610efb81611f6c565b336000908152601160205260409020600581015460ff1615610f79576040517f08c379a000000000000000000000000000000000000000000000000000000000815260206004820152601760248201527f63616e6e6f74207768656e207769746864726177696e6700000000000000000060448201526064016105ef565b600381015480610fe5576040517f08c379a000000000000000000000000000000000000000000000000000000000815260206004820152601260248201527f6e6f7468696e6720746f2072657374616b65000000000000000000000000000060448201526064016105ef565b8160030160009055808260020160008282546110019190612b0d565b92505081905550806010600082825461101a9190612b0d565b909155505060405181815233907fd8138f8a3f377c5259ca548e70e4c2de94f129f5a11036a15b69513cba2b426a9060200160405180910390a260405181815233907f7c717985ac273e663b7f3050f5b15a4388ff6ed952338954f650e2093e13937f9060200160405180910390a2505050565b60015473ffffffffffffffffffffffffffffffffffffffff16331461110f576040517f08c379a000000000000000000000000000000000000000000000000000000000815260206004820152601760248201527f63616c6c6572206973206e6f7420746865206f776e657200000000000000000060448201526064016105ef565b6009546111209062093a8090612b0d565b421161118a576040517f08c379a00000000000000000000000000000000000000000000000000000000081526004016105ef9060208082526004908201527f736f6f6e00000000000000000000000000000000000000000000000000000000604082015260600190565b62093a808110156111f7576040517f08c379a000000000000000000000000000000000000000000000000000000000815260206004820152601b60248201527f6d696e20706572696f64206c656e67746820697320372064617973000000000060448201526064016105ef565b42600955600855565b600061120e42600c54612301565b905090565b6000601054600014156112275750600f5490565b6000600e54611234611200565b61123e9190612b9d565b9050600081600d546112509190612b60565b905060006112696010548361231990919063ffffffff16565b905080600f546112799190612b0d565b935050505090565b60015473ffffffffffffffffffffffffffffffffffffffff163314611302576040517f08c379a000000000000000000000000000000000000000000000000000000000815260206004820152601760248201527f63616c6c6572206973206e6f7420746865206f776e657200000000000000000060448201526064016105ef565b6007546113139062093a8090612b0d565b421161137d576040517f08c379a00000000000000000000000000000000000000000000000000000000081526004016105ef9060208082526004908201527f736f6f6e00000000000000000000000000000000000000000000000000000000604082015260600190565b6109c48111156113e9576040517f08c379a000000000000000000000000000000000000000000000000000000000815260206004820152600e60248201527f6d6178206665652069732032352500000000000000000000000000000000000060448201526064016105ef565b42600755600655565b6113fc33826120eb565b50565b60015473ffffffffffffffffffffffffffffffffffffffff163314611480576040517f08c379a000000000000000000000000000000000000000000000000000000000815260206004820152601760248201527f63616c6c6572206973206e6f7420746865206f776e657200000000000000000060448201526064016105ef565b73ffffffffffffffffffffffffffffffffffffffff8116611523576040517f08c379a000000000000000000000000000000000000000000000000000000000815260206004820152602160248201527f5f666565436f6c6c6563746f7220616464726573732063616e6e6f742062652060448201527f300000000000000000000000000000000000000000000000000000000000000060648201526084016105ef565b600b80547fffffffffffffffffffffffff00000000000000000000000000000000000000001673ffffffffffffffffffffffffffffffffffffffff92909216919091179055565b60015473ffffffffffffffffffffffffffffffffffffffff1633146115eb576040517f08c379a000000000000000000000000000000000000000000000000000000000815260206004820152601760248201527f63616c6c6572206973206e6f7420746865206f776e657200000000000000000060448201526064016105ef565b6005546115fc9062093a8090612b0d565b4211611666576040517f08c379a00000000000000000000000000000000000000000000000000000000081526004016105ef9060208082526004908201527f736f6f6e00000000000000000000000000000000000000000000000000000000604082015260600190565b61167462278d006002612b60565b8111156116dd576040517f08c379a000000000000000000000000000000000000000000000000000000000815260206004820152601460248201527f6d61782064656c6179206973203630206461797300000000000000000000000060448201526064016105ef565b42600555600455565b6116f03382611b47565b60405181815233907f7c717985ac273e663b7f3050f5b15a4388ff6ed952338954f650e2093e13937f9060200160405180910390a250565b60015473ffffffffffffffffffffffffffffffffffffffff1633146117a9576040517f08c379a000000000000000000000000000000000000000000000000000000000815260206004820152601760248201527f63616c6c6572206973206e6f7420746865206f776e657200000000000000000060448201526064016105ef565b73ffffffffffffffffffffffffffffffffffffffff8216611826576040517f08c379a000000000000000000000000000000000000000000000000000000000815260206004820152601a60248201527f5f746f6b656e20616464726573732063616e6e6f74206265203000000000000060448201526064016105ef565b73ffffffffffffffffffffffffffffffffffffffff81166118c9576040517f08c379a000000000000000000000000000000000000000000000000000000000815260206004820152602160248201527f5f666565436f6c6c6563746f7220616464726573732063616e6e6f742062652060448201527f300000000000000000000000000000000000000000000000000000000000000060648201526084016105ef565b600a5473ffffffffffffffffffffffffffffffffffffffff1615611949576040517f08c379a000000000000000000000000000000000000000000000000000000000815260206004820152601160248201527f696e697420616c726561647920646f6e6500000000000000000000000000000060448201526064016105ef565b600a805473ffffffffffffffffffffffffffffffffffffffff9384167fffffffffffffffffffffffff000000000000000000000000000000000000000091821617909155600b805492909316911617905562093a806004556103e860065562278d00600855565b60026000541415611a1d576040517f08c379a000000000000000000000000000000000000000000000000000000000815260206004820152601f60248201527f5265656e7472616e637947756172643a207265656e7472616e742063616c6c0060448201526064016105ef565b600260008181553381526011602052604090200154611a98576040517f08c379a000000000000000000000000000000000000000000000000000000000815260206004820152600e60248201527f6e6f7468696e67207374616b656400000000000000000000000000000000000060448201526064016105ef565b611aa0611d2f565b15611b07576040517f08c379a000000000000000000000000000000000000000000000000000000000815260206004820152600d60248201527f756e7374616b652066697273740000000000000000000000000000000000000060448201526064016105ef565b610b756001611d66565b611b1a33612338565b60405133907fc0e0022681c64867610b70899a07bee5aa6e6c0d5e40cf3351a426fa9a81052990600090a2565b60026000541415611bb4576040517f08c379a000000000000000000000000000000000000000000000000000000000815260206004820152601f60248201527f5265656e7472616e637947756172643a207265656e7472616e742063616c6c0060448201526064016105ef565b600260005581611bc381611f6c565b60008211611c2d576040517f08c379a000000000000000000000000000000000000000000000000000000000815260206004820152600b60248201527f7a65726f20616d6f756e7400000000000000000000000000000000000000000060448201526064016105ef565b73ffffffffffffffffffffffffffffffffffffffff83166000908152601160205260409020600581015460ff1615611cc1576040517f08c379a000000000000000000000000000000000000000000000000000000000815260206004820152601760248201527f63616e6e6f74207768656e207769746864726177696e6700000000000000000060448201526064016105ef565b600a54611ce59073ffffffffffffffffffffffffffffffffffffffff163385611ff4565b8154909350611cf2574281555b82816002016000828254611d069190612b0d565b925050819055508260106000828254611d1f9190612b0d565b9091555050600160005550505050565b3360009081526011602052604081206005015460ff16801561120e5750503360009081526011602052604090206004015442101590565b336000908152601160209081526040808320815160c0810183528154815260018201549381019390935260028101549183019190915260038101546060830152600481015460808301526005015460ff1615801560a083015290919081908190611eba5784611dd9578360400151611de6565b611de684604001516124af565b925084611df4576000611e04565b828460400151611e049190612b9d565b9050836060015191503373ffffffffffffffffffffffffffffffffffffffff167fa018dcbc822f59fb0d0c3e7a86c8e4259b9676cdea9e5fc26279b9c4c5d86eef8560400151604051611e5991815260200190565b60405180910390a2336000908152601160205260408120818155600181018290556002810182905560038101829055600481019190915560050180547fffffffffffffffffffffffffffffffffffffffffffffffffffffffffffffff001690555b6000611ec68385612b0d565b1115611f6557600a54611ef99073ffffffffffffffffffffffffffffffffffffffff1633611ef48587612b0d565b6124d7565b8015611f2957600a54600b54611f299173ffffffffffffffffffffffffffffffffffffffff9081169116836124d7565b8115611f655760405182815233907fd8138f8a3f377c5259ca548e70e4c2de94f129f5a11036a15b69513cba2b426a9060200160405180910390a25b5050505050565b6000611f76611213565b90508015611ff057600f819055611f8b611200565b600e5573ffffffffffffffffffffffffffffffffffffffff821615611ff05773ffffffffffffffffffffffffffffffffffffffff82166000908152601160205260409020600581015460ff1661075e57611fe48361201f565b60038201556001018190555b5050565b600061201773ffffffffffffffffffffffffffffffffffffffff851684846124f8565b949350505050565b73ffffffffffffffffffffffffffffffffffffffff81166000908152601160209081526040808320815160c0810183528154815260018201549381019390935260028101549183019190915260038101546060830152600481015460808301526005015460ff1615801560a083015261209c576060015192915050565b600081602001516120ab611213565b6120b59190612b9d565b905060006120d082846040015161265d90919063ffffffff16565b90508083606001516120e29190612b0d565b95945050505050565b60026000541415612158576040517f08c379a000000000000000000000000000000000000000000000000000000000815260206004820152601f60248201527f5265656e7472616e637947756172643a207265656e7472616e742063616c6c0060448201526064016105ef565b6002600081815533815260116020526040902001546121d3576040517f08c379a000000000000000000000000000000000000000000000000000000000815260206004820152600e60248201527f6e6f7468696e67207374616b656400000000000000000000000000000000000060448201526064016105ef565b816121dd81611f6c565b73ffffffffffffffffffffffffffffffffffffffff83166000908152601160205260409020600301548061226d576040517f08c379a000000000000000000000000000000000000000000000000000000000815260206004820152601060248201527f6e6f7468696e6720746f20636c61696d0000000000000000000000000000000060448201526064016105ef565b73ffffffffffffffffffffffffffffffffffffffff808516600090815260116020526040812060030155600a546122a6911684836124d7565b8373ffffffffffffffffffffffffffffffffffffffff167fd8138f8a3f377c5259ca548e70e4c2de94f129f5a11036a15b69513cba2b426a826040516122ee91815260200190565b60405180910390a2505060016000555050565b60008183116123105782612312565b815b9392505050565b60008161232e670de0b6b3a764000085612b60565b6123129190612b25565b336000908152601160205260409020600201546123b1576040517f08c379a000000000000000000000000000000000000000000000000000000000815260206004820152600e60248201527f6e6f7468696e67207374616b656400000000000000000000000000000000000060448201526064016105ef565b806123bb81611f6c565b73ffffffffffffffffffffffffffffffffffffffff82166000908152601160205260409020600581015460ff161561244f576040517f08c379a000000000000000000000000000000000000000000000000000000000815260206004820152601760248201527f63616e6e6f74207768656e207769746864726177696e6700000000000000000060448201526064016105ef565b6005810180547fffffffffffffffffffffffffffffffffffffffffffffffffffffffffffffff001660011790556004546124899042612b0d565b60048201556002810154601080546000906124a5908490612b9d565b9091555050505050565b600654600090612710906124c39084612b60565b6124cd9190612b25565b610d4f9083612b9d565b61075e73ffffffffffffffffffffffffffffffffffffffff84168383612672565b6040517f70a08231000000000000000000000000000000000000000000000000000000008152306004820152600090819073ffffffffffffffffffffffffffffffffffffffff8616906370a082319060240160206040518083038186803b15801561256257600080fd5b505afa158015612576573d6000803e3d6000fd5b505050506040513d601f19601f8201168201806040525081019061259a9190612a57565b90506125a78585856127db565b6040517f70a0823100000000000000000000000000000000000000000000000000000000815230600482015260009073ffffffffffffffffffffffffffffffffffffffff8716906370a082319060240160206040518083038186803b15801561260f57600080fd5b505afa158015612623573d6000803e3d6000fd5b505050506040513d601f19601f820116820180604052508101906126479190612a57565b90506126538282612b9d565b9695505050505050565b60006123128383670de0b6b3a764000061294a565b6040805173ffffffffffffffffffffffffffffffffffffffff8481166024830152604480830185905283518084039091018152606490920183526020820180517bffffffffffffffffffffffffffffffffffffffffffffffffffffffff167fa9059cbb0000000000000000000000000000000000000000000000000000000017905291516000928392908716916127099190612ad2565b6000604051808303816000865af19150503d8060008114612746576040519150601f19603f3d011682016040523d82523d6000602084013e61274b565b606091505b50915091508180156127755750805115806127755750808060200190518101906127759190612a21565b611f65576040517f08c379a000000000000000000000000000000000000000000000000000000000815260206004820152601a60248201527f5361666545524332303a205472616e73666572206661696c656400000000000060448201526064016105ef565b6040805173ffffffffffffffffffffffffffffffffffffffff8481166024830152306044830152606480830185905283518084039091018152608490920183526020820180517bffffffffffffffffffffffffffffffffffffffffffffffffffffffff167f23b872dd0000000000000000000000000000000000000000000000000000000017905291516000928392908716916128789190612ad2565b6000604051808303816000865af19150503d80600081146128b5576040519150601f19603f3d011682016040523d82523d6000602084013e6128ba565b606091505b50915091508180156128e45750805115806128e45750808060200190518101906128e49190612a21565b611f65576040517f08c379a000000000000000000000000000000000000000000000000000000000815260206004820152601e60248201527f5361666545524332303a205472616e7366657246726f6d206661696c6564000060448201526064016105ef565b6000816129578486612b60565b6120179190612b25565b803573ffffffffffffffffffffffffffffffffffffffff8116811461298557600080fd5b919050565b60006020828403121561299c57600080fd5b61231282612961565b600080604083850312156129b857600080fd5b6129c183612961565b91506129cf60208401612961565b90509250929050565b6000806000606084860312156129ed57600080fd5b6129f684612961565b92506020840135612a0681612be3565b91506040840135612a1681612be3565b809150509250925092565b600060208284031215612a3357600080fd5b815161231281612be3565b600060208284031215612a5057600080fd5b5035919050565b600060208284031215612a6957600080fd5b5051919050565b60008060008060008060c08789031215612a8957600080fd5b86359550602087013594506040870135612aa281612be3565b9350606087013560ff81168114612ab857600080fd5b9598949750929560808101359460a0909101359350915050565b6000825160005b81811015612af35760208186018101518583015201612ad9565b81811115612b02576000828501525b509190910192915050565b60008219821115612b2057612b20612bb4565b500190565b600082612b5b577f4e487b7100000000000000000000000000000000000000000000000000000000600052601260045260246000fd5b500490565b6000817fffffffffffffffffffffffffffffffffffffffffffffffffffffffffffffffff0483118215151615612b9857612b98612bb4565b500290565b600082821015612baf57612baf612bb4565b500390565b7f4e487b7100000000000000000000000000000000000000000000000000000000600052601160045260246000fd5b80151581146113fc57600080fdfea2646970667358221220367765c92ce64d6bdf148fb37ba8b1c1e9a521f144c35c7ea39c76f946441a6964736f6c63430008060033",
  "devdoc": {
    "details": "Uses an ever increasing 'rewardPerTokenStored' variable to distribute rewards         each time a write action is called in the contract. This allows for passive reward accrual.",
    "events": {
      "Claimed(address,uint256)": {
        "details": "events"
      }
    },
    "kind": "dev",
    "methods": {
      "addStake(uint256)": {
        "details": "Add tokens to staking contract",
        "params": {
          "_amount": "of tokens to stake"
        }
      },
      "addStakeWithPermit(uint256,uint256,bool,uint8,bytes32,bytes32)": {
        "details": "Add tokens to staking contract by using permit to set allowance",
        "params": {
          "_amount": "of tokens to stake",
          "_approveMax": "allowance for the token",
          "_deadline": "of permit signature"
        }
      },
      "canStakeTokens(address)": {
        "details": "external view to check if address can stake tokens",
        "returns": {
          "_0": "true if user can stake tokens"
        }
      },
      "claim()": {
        "details": "Claims rewards for the msg.sender."
      },
      "claimOwnership()": {
        "details": "Needs to be called by `pendingOwner` to claim ownership."
      },
      "claimTo(address)": {
        "details": "Claim msg.sender rewards to provided address",
        "params": {
          "_recipient": "address where claimed tokens should be sent"
        }
      },
      "claimable(address)": {
        "details": "Calculates the claimable amounts for token stake from rewards",
        "params": {
          "_account": "user address"
        }
      },
      "currentRewardPerTokenStored()": {
        "details": "Calculates the amount of unclaimed rewards per token since last update,      and sums with stored to give the new cumulative reward per token",
        "returns": {
          "_0": "'Reward' per staked token"
        }
      },
      "init(address,address)": {
        "details": "One time initialization function",
        "params": {
          "_feeCollector": "fee collecting address",
          "_token": "Staking token address"
        }
      },
      "lastTimeRewardApplicable()": {
        "details": "Gets the last applicable timestamp for this reward period"
      },
      "notifyRewardAmount(uint256)": {
        "details": "Notifies the contract that new rewards have been added.      Calculates an updated rewardRate based on the rewards in period.",
        "params": {
          "_reward": "Units of token that have been added to the token pool"
        }
      },
      "requestUnstake()": {
        "details": "Request unstake for deposited tokens. Marks user token stake as withdrawing,      and start withdrawing period."
      },
      "restake()": {
        "details": "Restake earned tokens and add them to token stake (instead of claiming)"
      },
      "setRewardsDistribution(address)": {
        "details": "Change the rewardsDistributor - only called by owner",
        "params": {
          "_rewardsDistributor": "Address of the new distributor"
        }
      },
      "transferOwnership(address,bool,bool)": {
        "details": "Transfers ownership to `newOwner`. Either directly or claimable by the new pending owner.      Can only be invoked by the current `owner`.",
        "params": {
          "_direct": "True if `_newOwner` should be set immediately. False if `_newOwner` needs to use `claimOwnership`.",
          "_newOwner": "Address of the new owner.",
          "_renounce": "Allows the `_newOwner` to be `address(0)` if `_direct` and `_renounce` is True. Has no effect otherwise"
        }
      },
      "unstake()": {
        "details": "Withdraw stake for msg.sender from stake (if possible)"
      },
      "unstakeWithFee()": {
        "details": "Unstake requested stake at any time accepting penalty fee"
      }
    },
    "stateVariables": {
      "tokenStake": {
        "details": "each holder have one stake"
      }
    },
    "title": "Staking",
    "version": 1
  },
  "userdoc": {
    "kind": "user",
    "methods": {
      "feeCollector()": {
        "notice": "fee collecting address"
      },
      "lastUpdateTime()": {
        "notice": "last time any user took action"
      },
      "periodFinish()": {
        "notice": "timestamp for current period finish"
      },
      "periodLength()": {
        "notice": "reward recalculation period length"
      },
      "rewardPerTokenStored()": {
        "notice": "accumulated per token reward since the beginning of time"
      },
      "rewardRate()": {
        "notice": "rewardRate for the rest of the period"
      },
      "stakedTokens()": {
        "notice": "amount of tokens that is used in reward per token calculation"
      },
      "timeToUnstake()": {
        "notice": "time to wait for unstake"
      },
      "token()": {
        "notice": "reward token address"
      },
      "tokenStake(address)": {
        "notice": "token stakes storage"
      },
      "unstakeFee()": {
        "notice": "fee for premature unstake"
      }
    },
    "notice": "Rewards stakers of given token with rewards in form of reward token, on a pro-rata basis.",
    "version": 1
  },
  "storageLayout": {
    "storage": [
      {
        "astId": 1702,
        "contract": "contracts/staking/Staking.sol:Staking",
        "label": "_status",
        "offset": 0,
        "slot": "0",
        "type": "t_uint256"
      },
      {
        "astId": 3095,
        "contract": "contracts/staking/Staking.sol:Staking",
        "label": "owner",
        "offset": 0,
        "slot": "1",
        "type": "t_address"
      },
      {
        "astId": 3097,
        "contract": "contracts/staking/Staking.sol:Staking",
        "label": "pendingOwner",
        "offset": 0,
        "slot": "2",
        "type": "t_address"
      },
      {
        "astId": 3405,
        "contract": "contracts/staking/Staking.sol:Staking",
        "label": "rewardsDistributor",
        "offset": 0,
        "slot": "3",
        "type": "t_address"
      },
      {
        "astId": 3252,
        "contract": "contracts/staking/Staking.sol:Staking",
        "label": "timeToUnstake",
        "offset": 0,
        "slot": "4",
        "type": "t_struct(StakeParameters)3248_storage"
      },
      {
        "astId": 3256,
        "contract": "contracts/staking/Staking.sol:Staking",
        "label": "unstakeFee",
        "offset": 0,
        "slot": "6",
        "type": "t_struct(StakeParameters)3248_storage"
      },
      {
        "astId": 3260,
        "contract": "contracts/staking/Staking.sol:Staking",
        "label": "periodLength",
        "offset": 0,
        "slot": "8",
        "type": "t_struct(StakeParameters)3248_storage"
      },
      {
        "astId": 6403,
        "contract": "contracts/staking/Staking.sol:Staking",
        "label": "token",
        "offset": 0,
        "slot": "10",
        "type": "t_address"
      },
      {
        "astId": 6406,
        "contract": "contracts/staking/Staking.sol:Staking",
        "label": "feeCollector",
        "offset": 0,
        "slot": "11",
        "type": "t_address"
      },
      {
        "astId": 6409,
        "contract": "contracts/staking/Staking.sol:Staking",
        "label": "periodFinish",
        "offset": 0,
        "slot": "12",
        "type": "t_uint256"
      },
      {
        "astId": 6412,
        "contract": "contracts/staking/Staking.sol:Staking",
        "label": "rewardRate",
        "offset": 0,
        "slot": "13",
        "type": "t_uint256"
      },
      {
        "astId": 6415,
        "contract": "contracts/staking/Staking.sol:Staking",
        "label": "lastUpdateTime",
        "offset": 0,
        "slot": "14",
        "type": "t_uint256"
      },
      {
        "astId": 6418,
        "contract": "contracts/staking/Staking.sol:Staking",
        "label": "rewardPerTokenStored",
        "offset": 0,
        "slot": "15",
        "type": "t_uint256"
      },
      {
        "astId": 6421,
        "contract": "contracts/staking/Staking.sol:Staking",
        "label": "stakedTokens",
        "offset": 0,
        "slot": "16",
        "type": "t_uint256"
      },
      {
        "astId": 6440,
        "contract": "contracts/staking/Staking.sol:Staking",
        "label": "tokenStake",
        "offset": 0,
        "slot": "17",
        "type": "t_mapping(t_address,t_struct(Stake)6434_storage)"
      }
    ],
    "types": {
      "t_address": {
        "encoding": "inplace",
        "label": "address",
        "numberOfBytes": "20"
      },
      "t_bool": {
        "encoding": "inplace",
        "label": "bool",
        "numberOfBytes": "1"
      },
      "t_mapping(t_address,t_struct(Stake)6434_storage)": {
        "encoding": "mapping",
        "key": "t_address",
        "label": "mapping(address => struct Staking.Stake)",
        "numberOfBytes": "32",
        "value": "t_struct(Stake)6434_storage"
      },
      "t_struct(Stake)6434_storage": {
        "encoding": "inplace",
        "label": "struct Staking.Stake",
        "members": [
          {
            "astId": 6423,
            "contract": "contracts/staking/Staking.sol:Staking",
            "label": "stakeStart",
            "offset": 0,
            "slot": "0",
            "type": "t_uint256"
          },
          {
            "astId": 6425,
            "contract": "contracts/staking/Staking.sol:Staking",
            "label": "rewardPerTokenPaid",
            "offset": 0,
            "slot": "1",
            "type": "t_uint256"
          },
          {
            "astId": 6427,
            "contract": "contracts/staking/Staking.sol:Staking",
            "label": "tokens",
            "offset": 0,
            "slot": "2",
            "type": "t_uint256"
          },
          {
            "astId": 6429,
            "contract": "contracts/staking/Staking.sol:Staking",
            "label": "rewards",
            "offset": 0,
            "slot": "3",
            "type": "t_uint256"
          },
          {
            "astId": 6431,
            "contract": "contracts/staking/Staking.sol:Staking",
            "label": "withdrawalPossibleAt",
            "offset": 0,
            "slot": "4",
            "type": "t_uint256"
          },
          {
            "astId": 6433,
            "contract": "contracts/staking/Staking.sol:Staking",
            "label": "isWithdrawing",
            "offset": 0,
            "slot": "5",
            "type": "t_bool"
          }
        ],
        "numberOfBytes": "192"
      },
      "t_struct(StakeParameters)3248_storage": {
        "encoding": "inplace",
        "label": "struct Parameterized.StakeParameters",
        "members": [
          {
            "astId": 3245,
            "contract": "contracts/staking/Staking.sol:Staking",
            "label": "value",
            "offset": 0,
            "slot": "0",
            "type": "t_uint256"
          },
          {
            "astId": 3247,
            "contract": "contracts/staking/Staking.sol:Staking",
            "label": "lastChange",
            "offset": 0,
            "slot": "1",
            "type": "t_uint256"
          }
        ],
        "numberOfBytes": "64"
      },
      "t_uint256": {
        "encoding": "inplace",
        "label": "uint256",
        "numberOfBytes": "32"
      }
    }
  }
}